:03000000021000EB
:03000300022003D5
:03000B0002200BC5
:03001300022013B5
:03001B0002201BA5
:0300230002202395
:03002B0002202B85
:0300330002203375
:03003B0002203B65
:0300430002204355
:03004B0002204B45
:0300530002205335
:03005B0002205B25
:0300630002206315
:03006B0002206B05
:03007300022073F5
:03007B0002207BE5
:03008300022083D5
:03008B0002208BC5
:03009300022093B5
:03009B0002209BA5
:0300A3000220A395
:0300AB000220AB85
:0300B3000220B375
:0300BB000220BB65
:0C100000787FE4F6D8FD758120021047CF
:10451B009007411236D375C78175C502900741A329
:10452B00A3E0FEA3E4FFE4FDFC78081236A08FC3E2
:10453B00900741E0FCA3E0FDA3E0FEA3E0FF8FC4E6
:10454B00A3E0F5C2C2AF75C65A75C6A500D2AF02BD
:02455B0047BB5C
:102046009007411236D3E4F5C275C78175C5019074
:102056000741A3A3E0FEA3E4FFE4FDFC78081236E3
:10206600A08FC3900741E0FCA3E0FDA3E0FEA3E040
:10207600FFE48FC4C2AF75C65A75C6A500D2AF12AB
:0520860047BBAFC222C0
:1045DF009007411236D375C78175C503900741A364
:1045EF00A3E0FEA3E4FFE4FDFC78081236A08FC31E
:1045FF00900741E0FCA3E0FDA3E0FEA3E0FFE48F02
:0F460F00C4C2AF75C65A75C6A500D2AF0247BB6D
:0D47BB00E4F5C7F5C5F5C675C380F5C42249
:103BFD00900734EEF0A3EFF0A3ECF0A3EDF0A3EB00
:073C0D00F0A3EAF0A3E9F0C7
:103C1400E4A3F0A3F0A3F0A3F0A3F0A3F09007347F
:103C2400E0FEA3E0FFE4FCFD1245DFE490073BF077
:103C3400A3F0900736E0FEA3E0FFC390073CE09FAB
:103C440090073BE09E5079900734E0FEA3E0FFE448
:103C5400FCFD900738E0FBA3E0FAA3E0F9A3E0F849
:103C6400A3E0F58288831235B6900745F012451B10
:103C7400900734E0FEA3E0FFE4FCFD122046900729
:103C840038E0FBA3E0FAA3E0F9A3E0FCA3E0F582AB
:103C94008C831235B66F60061247BB7F00229007F3
:103CA40035E004F07006900734E004F090073CE03F
:103CB40004F06003023C3690073BE004F0023C361B
:053CC4001247BB7F0167
:013CC90022D8
:0F465C00A3E0FDA3A3E4FFFEE47810FC1236A058
:05466B009008ACEFF027
:10467000E4A3F0C2C19008ACE030E704D2C08002ED
:10468000C2C01247FCD2C19008ACE025E0F0A3E024
:0846900004F0E0C3940840DBD4
:0146980022FF
:10469900E49008ADF0D2C2C2C19008ACF0D2C11208
:1046A90047FC9008ADE025E0F030C204E04401F099
:1046B900C2C19008ACE004F0E0C3940840DF900860
:0346C900ADE0FF62
:0146CC0022CB
:0347C8001236D3D3
:0A47CB00C2C37F0612466BD2C32260
:10474B00E49008ABF0C2C37F0512466B12469990FA
:09475B0008ABEFF020E0F5D2C339
:014764002232
:1046CD00E4FE9008BCF0FDC2C37F9012466BE4FF80
:1046DD0012466BE4FF12466BE4FF12466B124699CD
:1046ED009008BCEFF0124699AD07D2C39008BCE01C
:0346FD00FEEDFFD0
:014700002296
:0742AE00F07B017A0779A201
:1042B5009008A2EBF0A3EAF0A3E9F0A31247C8C265
:1042C500C37F0212466B9008A512465C9008A5A311
:1042D500A3E0FEA3E4FFE4FD78081246679008A575
:1042E500E0FCA3E0FDA3E0FEA3E0FF12466B90080F
:1042F500A974FFF5F012361D45F0601E9008A2E086
:10430500FBA3E0FAA3E0F912359DFF12466B900876
:0F431500A3E475F00112360780D4D2C302474BE0
:0740D000F07B017A0779A2E1
:1040D7009008A2EBF0A3EAF0A3E9F0A31236D3C24B
:1040E700C37F0312466B9008A512465C9008A5A3F0
:1040F700A3E0FEA3E4FFE4FDFC78081236A0124615
:104107006B9008A5E0FCA3E0FDA3E0FEA3E0FF128F
:10411700466B9008A974FFF5F012361D45F0601E36
:104127001246999008A2E0FBA3E0FAA3E0F9EF1288
:1041370035E39008A3E475F00112360780D4D2C3A3
:014147002255
:10461E009007941247C8C2C37F2012466B9007942E
:10462E0012465C900794A3A3E0FEA3E4FFE4FDFC16
:10463E0078081236A012466B900794E0FCA3E0FDBA
:0E464E00A3E0FEA3E0FF12466BD2C302474B6F
:10455D009007341236D31247CBC2C37FD812466BA5
:10456D0090073412465C900734A3A3E0FEA3E4FF4A
:10457D00E4FDFC78081236A012466B900734E0FC7F
:10458D00A3E0FDA3E0FEA3E0FF12466BD2C30247FA
:01459D004BD2
:0F479E001247CBC2C37FC712466BD2C302474B31
:06108C0090076E1236D33E
:10109200E4900790F0A3F0A3F0A3F0900782123639
:1010A200DF00001000900782E0FCA3E0FDA3E0FE59
:1010B200A3E024FFFFEE34FFFEED34FFFDEC34FF2E
:1010C200FC12368290076EE0F8A3E0F9A3E0FAA3DF
:1010D200E05FFFEA5EFEE95DFDE85CFC90077412EA
:1010E20036D3900782E0FCA3E0FDA3E0FEA3E0FF7D
:1010F200900774E0F8A3E0F9A3E0FAA3E02FFFEA77
:101102003EFEE93DFDE83CFCEF24FFFFEE34FFFE2E
:10111200ED34FFFDEC34FFFCA31236D3900782E0DE
:10112200FCA3E0FDA3E0FEA3E024FFFFEE34FFFEFC
:10113200ED34FFFDEC34FFFC123682C004C005C062
:1011420006AB07900772E0FEA3E0FFE4FCFD900708
:101152006EE0F8A3E0F9A3E0FAA3E02FFFEA3EFE77
:10116200ED39FDEC38FCD002D001D000EF5BFFEE90
:101172005AFEED59FDEC58FC90077C1236D39007CD
:1011820082E0FCA3E0FDA3E0FEA3E0FF90077CE089
:10119200F8A3E0F9A3E0FAA3E02FFFEA3EFEE93D5F
:1011A200FDE83CFCEF24FFFFEE34FFFEED34FFFDD3
:1011B200EC34FFFC900778E0F8A3E0F9A3E0FAA38F
:1011C200E0FBC312368F60030214B8FF7EF07D7F0E
:1011D200FC12478A9007861236DF007FF0009007E4
:1011E20074E0FCA3E0FDA3E0FEA3E0FF90078A12F7
:1011F20036D3900774A3A3E0FEA3E0FBAA069007F0
:101202006EA3A3E0FEA3E0C39BFFEE9A90078EF0CD
:10121200A3EFF090078EE0FCA3E0FDECFF7E00A3BD
:10122200EEF0A3EFF0FBAF05A3EEF0A3EFF0D3EBEC
:101232009400E4940090078AE0FC406E123ACB904E
:101242000791E0FEE4FCFD900786E0F8A3E0F9A335
:10125200E0FAA3E02400FFEA3EFEED39FDEC38FCA3
:10126200C004C005C006C007900791E0FEE4FCFD83
:1012720090078AE0F8A3E0F9A3E0FAA3E02400FFD4
:10128200EA3EFEED39FDEC38FC9007981236D39019
:101292000792E0FFA3E090079CCFF0A3EFF0C20714
:1012A200D007D006D005D004802EA3E0FDA3E0FE37
:1012B200A3E0FF9007981236D3900792E0FFA3E0D5
:1012C20090079CCFF0A3EFF0C207900786E0FCA343
:1012D200E0FDA3E0FEA3E0FF123AF990076EE0FC06
:1012E200A3E0FDA3E0FEA3E02400FFEE34F0FEED58
:1012F200347FFDE43CFC900774E0F8A3E0F9A3E03E
:10130200FAA3E0FBC3EF9BFBEE9AFAED99F9EC9896
:10131200F8900772E0FEA3E0FFE4FCFDEB2FFFEA8A
:101322003EFEED39FDEC38FC9007861236D390076D
:1013320072E0FEA3E0FFE4FCFD90076EE0F8A3E09C
:10134200F9A3E0FAA3E02FFFEA3EFEED39FDEC3807
:10135200FC90078A1236D390076EA3A3E0FEA3E0A7
:10136200FBAA06900778A3A3E0FEA3E0C39BFFEECF
:101372009AFE900772E0FCA3E0FDC3EF9DFFEE9C96
:10138200CF2401CF340090078EF0A3EFF090078EA8
:10139200E0FCA3E0FDECFF7E00A3EEF0A3EFF0FB88
:1013A200AF05A3EEF0A3EFF0D3EB9400E49400902A
:1013B200078AE0FC406E123ACB900791E0FEE4FC13
:1013C200FD900786E0F8A3E0F9A3E0FAA3E0240089
:1013D200FFEA3EFEED39FDEC38FCC004C005C00654
:1013E200C007900791E0FEE4FCFD90078AE0F8A3B5
:1013F200E0F9A3E0FAA3E02400FFEA3EFEED39FDA6
:10140200EC38FC9007981236D3900792E0FFA3E0E5
:1014120090079CCFF0A3EFF0C207D007D006D0050B
:10142200D004802EA3E0FDA3E0FEA3E0FF90079886
:101432001236D3900792E0FFA3E090079CCFF0A36F
:10144200EFF0C207900786E0FCA3E0FDA3E0FEA355
:10145200E0FF123AF912477C900774E0FCA3E0FD2A
:10146200A3E0FEA3E0FF9007861236D390078A120C
:1014720036DF007FF000900782A3A3E0FFA3E09095
:10148200078ECFF0A3EFF090078EE0FCA3E0FDEC17
:10149200FF7E00A3EEF0A3EFF0FBAF05A3EEF0A3F7
:1014A200EFF0D3EB9400E4940090078AE0FC500341
:1014B2000218F20218847F007EF07D7F7C001247C2
:1014C2008A9007861236DF007FF000900774E0FCF6
:1014D200A3E0FDA3E0FEA3E0FF90078A1236D390BB
:1014E2000774A3A3E0FEA3E0FBAA0690076EA3A3E2
:1014F200E0FEA3E0C39BFFEE9A90078EF0A3EFF00D
:1015020090078EE0FCA3E0FDECFF7E00A3EEF0A3CB
:10151200EFF0FBAF05A3EEF0A3EFF0D3EB9400E402
:10152200940090078AE0FC406E123ACB900791E05B
:10153200FEE4FCFD900786E0F8A3E0F9A3E0FAA33D
:10154200E02400FFEA3EFEED39FDEC38FCC004C0A9
:1015520005C006C007900791E0FEE4FCFD90078AF3
:10156200E0F8A3E0F9A3E0FAA3E02400FFEA3EFEDC
:10157200ED39FDEC38FC9007981236D3900792E0D3
:10158200FFA3E090079CCFF0A3EFF0C207D007D0F3
:1015920006D005D004802EA3E0FDA3E0FEA3E0FF69
:1015A2009007981236D3900792E0FFA3E090079C31
:1015B200CFF0A3EFF0C207900786E0FCA3E0FDA303
:1015C200E0FEA3E0FF123AF912477C900774E0FCB8
:1015D200A3E0FDA3E0FEA3E0FF9007861236D390BE
:1015E200078A1236DF007FF000900782A3A3E0FF94
:1015F200A3E090078ECFF0A3EFF090078EE0FCA35C
:10160200E0FDECFF7E00A3EEF0A3EFF0FBAF05A33D
:10161200EEF0A3EFF0D3EB9400E4940090078AE09D
:10162200FC406E123ACB900791E0FEE4FCFD90077D
:1016320086E0F8A3E0F9A3E0FAA3E02400FFEA3E83
:10164200FEED39FDEC38FCC004C005C006C00790B1
:101652000791E0FEE4FCFD90078AE0F8A3E0F9A31D
:10166200E0FAA3E02400FFEA3EFEED39FDEC38FC8F
:101672009007981236D3900792E0FFA3E090079C60
:10168200CFF0A3EFF0C207D007D006D005D0048078
:101692002EA3E0FDA3E0FEA3E0FF9007981236D34D
:1016A200900792E0FFA3E090079CCFF0A3EFF0C277
:1016B20007900786E0FCA3E0FDA3E0FEA3E0FF1293
:1016C2003AF97F007EF07D7F7C0012478A90076E98
:1016D200A3A3E0FEA3E0FBAA06900778A3A3E0FE83
:1016E200A3E0C39BFFEE9ACF2401CF3400FEC39048
:1016F2000773E09FFF900772E09EFE900780F0FA6A
:10170200A3EFF0FBE42FFFEE34F0FEE4347FFDE4C0
:1017120033FC9007861236D3AF03AE02E4FCFD9091
:10172200077CE0F8A3E0F9A3E0FAA3E02FFFEA3E8A
:10173200FEED39FDEC38FC90078A1236D390078211
:10174200A3A3E0FEA3E0FF900780E0FCA3E0FDC3BB
:10175200EF9DFFEE9C90078EF0A3EFF090078EE0D6
:10176200FCA3E0FDECFF7E00A3EEF0A3EFF0FBAFE5
:1017720005A3EEF0A3EFF0D3EB9400E494009007FE
:101782008AE0FC406E123ACB900791E0FEE4FCFD49
:10179200900786E0F8A3E0F9A3E0FAA3E02400FFB3
:1017A200EA3EFEED39FDEC38FCC004C005C006C0BF
:1017B20007900791E0FEE4FCFD90078AE0F8A3E0C1
:1017C200F9A3E0FAA3E02400FFEA3EFEED39FDECC6
:1017D20038FC9007981236D3900792E0FFA3E0906E
:1017E200079CCFF0A3EFF0C207D007D006D005D0F8
:1017F20004802EA3E0FDA3E0FEA3E0FF9007981271
:1018020036D3900792E0FFA3E090079CCFF0A3EFBE
:10181200F0C207900786E0FCA3E0FDA3E0FEA3E090
:10182200FF123AF990077C12477F90077CE0FCA3F5
:10183200E0FDA3E0FEA3E0FF9007861236D39007F7
:101842008A1236DF007FF000900782A3A3E0FFA395
:10185200E090078ECFF0A3EFF090078EE0FCA3E0BC
:10186200FDECFF7E00A3EEF0A3EFF0FBAF05A3EECD
:10187200F0A3EFF0D3EB9400E4940090078AE0FC2D
:10188200406E123ACB900791E0FEE4FCFD90078691
:10189200E0F8A3E0F9A3E0FAA3E02400FFEA3EFEA9
:1018A200ED39FDEC38FCC004C005C006C007900746
:1018B20091E0FEE4FCFD90078AE0F8A3E0F9A3E0E2
:1018C200FAA3E02400FFEA3EFEED39FDEC38FC907D
:1018D20007981236D3900792E0FFA3E090079CCFBF
:1018E200F0A3EFF0C207D007D006D005D004802EB7
:1018F200A3E0FDA3E0FEA3E0FF9007981236D39089
:101902000792E0FFA3E090079CCFF0A3EFF0C2079D
:10191200900786E0FCA3E0FDA3E0FEA3E0FF123AFD
:01192200F9CB
:0119230022A1
:103CCA0090076E1236D3900772EBF0A3EAF0A3E9DD
:013CDA00F0F9
:103CDB0090076EE0FCA3E0FDA3E0FEA3E0FF807B7A
:103CEB00900775E0FCA3E0FDA3E0FEA3E0FF9007C7
:103CFB006EE0F8A3E0F9A3E0FAA3E02FFFEA3EFEA3
:103D0B00E93DFDE83CFC900779E0F8A3E0F9A3E07E
:103D1B00FAA3E0FBC312368F504A900779E0FCA35D
:103D2B00E0FDA3E0FEA3E0FF900772E0FBA3E475C8
:103D3B00F00112361DA9F0FA12359D900781F01291
:103D4B00478D900779E0FCA3E0FDA3E0FEA3E02400
:103D5B0001FFE43EFEE43DFDE43CFC9007791236A6
:043D6B00D3023CEB58
:013D6F002231
:10438A009007651236D3900769EBF0A3EAF0A3E928
:10439A00F0900765E0FCA3E0FDA3E0FEA3E0FF9038
:1043AA00076CE0FBA3E0900772CBF0A3EBF01210CE
:1043BA008C900769E0FBA3E0FAA3E0F9A3E0FEA36F
:1043CA00E0FFE4FCFD9007751236D3900765E0FC28
:0C43DA00A3E0FDA3E0FEA3E0FF023CCA4C
:0F3D7000900785EBF0A3EAF0A3E9F0A31236D396
:103D7F0090078E1236DF0000000090078CE0FEA344
:103D8F00E0FFE4FCFDA3E0F8A3E0F9A3E0FAA3E071
:103D9F00FBC312368F505E90078EE0FCA3E0FDA3AD
:103DAF00E0FEA3E0FF900788E0F8A3E0F9A3E0FAB4
:103DBF00A3E02FFFEA3EFEE93DFDE83CFC1247651C
:103DCF00900785E0FBA3E475F00112361DA9F0FA08
:103DDF00EF1235E390078EE0FCA3E0FDA3E0FEA316
:103DEF00E02401FFE43EFEE43DFDE43CFC90078E41
:103DFF001236D38085900785E0FBA3E0FAA3E0F9A4
:013E0F002290
:103ACB00A3E0FDA3E0FEA3E0FF9007981236D3908E
:103ADB000790E0FFA3E090079CCFF0A3EFF0D20795
:0E3AEB00900786E0FCA3E0FDA3E0FEA3E0FF51
:063AF9009007941236D381
:103AFF00200703023BC090079E1236DF0000000034
:103B0F0090079CE0FEA3E0FFE4FCFDA3E0F8A3E038
:103B1F00F9A3E0FAA3E0FBC312368F4003023BFC8C
:103B2F00E4FF7E01FDFC90079EE0F8A3A3A3E01243
:103B3F003633900798E0F8A3E0F9A3E0FAA3E02F5B
:103B4F00FFEA3EFEE93DFDE83CFC9008A97401F058
:103B5F00A3E41240D0E4FF7E01FDFC90079EE0F845
:103B6F00A3E0F9A3E0FAA3E0FB123633900794E049
:103B7F00F8A3E0F9A3E0FAA3E02FFFEA3EFEE93D48
:103B8F00FDE83CFC9008A97401F0A3E41242AE904A
:103B9F00079EE0FCA3E0FDA3E0FEA3E02401FFE409
:103BAF003EFEE43DFDE43CFC90079E1236D3023B03
:103BBF000F900798E0FCA3E0FDA3E0FEA3E0FFA3B6
:103BCF00E0FBA3E09008A9CBF0A3EB1240D0900745
:103BDF0094E0FCA3E0FDA3E0FEA3E0FF90079CE0D0
:0D3BEF00FBA3E09008A9CBF0A3EB1242AEBF
:013BFC0022A6
:06404B009008AF1236D30D
:104051009008B81236DF000000009008B3E0FCA31E
:10406100E0FDA3E0FEA3E0FF9008B8E0F8A3E0F9CB
:10407100A3E0FAA3E0FBC312368F50529008B8E0D8
:10408100FCA3E0FDA3E0FEA3E0FF9008AFE0F8A3EE
:10409100E0F9A3E0FAA3E02FFFEA3EFEE93DFDE8E7
:1040A1003CFC9008B7E0900781F012478D9008B86A
:1040B100E0FCA3E0FDA3E0FEA3E02401FFE43EFE5B
:0E40C100E43DFDE43CFC9008B81236D3808C40
:0140CF0022CE
:0E477C00900774E0FCA3E0FDA3E0FEA3E0FFC5
:03478A0002461EC6
:10478D007B017A0779819008A9E4F0A304F0024235
:01479D00B566
:104765007B017A0779929008A9E4F0A304F012403E
:06477500D7900792E0FF5F
:01477B00221B
:0847FC007F01AE071FEE70FA09
:014804002291
:07480500D2B2C288D2A82242
:1043E60043B40153B3FE53B4F753B3F753B4EF5387
:1043F600B3EF43B30F43B40F7595FFE4F59653B18E
:10440600F743B20853B17F43B28053937F439480FE
:104416005391EF4392105391DF43922043910453FB
:1044260092FB4391085392F7C294C295C2C4C2C389
:014436002263
:10200E00538E7F5389F0E4F58A758CB8C28DD28CCD
:03201E00D2A92222
:1047010053BAFB43BA01E5A2543FF5A2759850751F
:104711009A5075AC1075841075D7D075D6FF758E0B
:0A47210014438E01D2AC75AF1922CB
:10459E007B017A07791D90078CE4F0A37406F07FF7
:1045AE00007EE07D7F7C00123D7090071DE0F46080
:1045BE001FE4FF741D2FF582E43407F583E0FE74CB
:1045CE00152FF582E43407F583EEF00FEFB406E312
:0145DE0022BA
:10396400000000000001FFFF000200000003FFFF51
:10397400000400000005FFFF000600000007FFFF31
:10398400000800000009FFFF000A0000000BFFFF11
:10399400000C0000000DFFFF000E0000000FFFFFF1
:1039A400001000000011FFFF001200000013FFFFD1
:1039B400001400000015FFFF001600000016FFFFB2
:1039C400001700000017FFFF001800000018FFFF99
:1039D400001900000019FFFF001A0000001AFFFF81
:1039E400001B0000001BFFFF001C0000001CFFFF69
:1039F400001D0000001DFFFF001E0000001EFFFF51
:103A0400001F0000001FFFFF002000000020FFFF38
:103A1400002100000021FFFF002200000022FFFF20
:103A2400002300000023FFFF002400000024FFFF08
:103A3400002500000025FFFF2B2B2B6141542B4553
:103A44004E544D0D2016061455AAAA550001000225
:103A5400000630014001400230024003300380017F
:103A6400700160016002F801FFFFFEFEFF01FF022A
:103A74000000000000000000000000000000000042
:103A84000000000000000000000000000000000032
:103A9400000000000000FFFFFFFF00000000000026
:103AA4000000000000000000000000000000000012
:103AB4000000000000000000000000000000000002
:073AC40000000000000000FB
:1020960041025B3141000030420711000042071344
:1020A600000042071B0000420259000A42025C007F
:1020B600006258000100000000000000000000005F
:1020C600000000000000000000000000000000000A
:1020D60000000000000000000000000000000000FA
:1020E60000000000000000000000000000000000EA
:1020F60000000000000000000000000000000000DA
:10230600000000000000000000000000006258020B
:102316005E00000000000000000000000000000059
:1023260000000000000000000000000000000000A7
:102336000000000000000000000000000000000097
:102346000000000000000000000000000000000087
:102356000000000000000000000000000000000077
:102566000000000000000000004204B6000046071C
:102576001503710001000141071000625804B800FC
:102586000000000000000000000000000000000045
:102596000000000000000000000000000000000035
:1025A6000000000000000000000000000000000025
:1025B6000000000000000000000000000000000015
:0727D60000000000000000FC
:103F34001243E612470112200E12480512459ED282
:103F4400AF12472BD202D2B4D20030033490071000
:103F5400E004F090073F7401F0A37402F0A3745BD3
:103F6400F0A3E4F0A304F0C2067BFF7A3A7950127E
:103F7400373CAC06AD077B017A0479B812448BC296
:103F840003300402C2043001287B017A02795E9076
:103F940004B6E0FCA3E0FD1244D3E49004B6F0A31D
:103FA400F07E027F58FD7B017A02795E123710C2DF
:103FB4000190025CE07002A3E0608B1219248086F9
:03200B00023E1082
:103E1000C0E0C083C082C0D075D0082003239007C3
:103E200012E004F07006900711E004F0D39007123E
:103E3000E094A0900711E0940F4006D203E4F0A3B1
:103E4000F030022DC2B6900714E004F0700690071F
:103E500013E004F0900259E0FEA3E0FFD3900714B2
:103E6000E09F900713E09E4008D2B6C202E4F0A3A0
:103E7000F030052620042390071CE004F070069023
:103E8000071BE004F0D390071CE0948090071BE030
:103E900094BB4006D204E4F0A3F0D0D0D082D0830B
:033EA000D0E0323D
:032023000241C0B7
:0D41C000C0E0C0F0C083C082C0D075D00840
:1041CD00E59830E05A9008AEE599F0C2B45398FEE8
:1041DD0030002D209320D29420931975950075965B
:1041ED00FF4391045392FBE0122026B2C42092FDAE
:1041FD00C2948002C294C2947595FF759600801F7B
:10420D00D2019008AEE0FF9004B6E475F0011236CD
:0F421D001DFC745E25F0F58274023CF583EFF012
:0B422C00D0D0D082D083D0F0D0E032A0
:032043000247D57C
:0D47D500C0E0E59A30E003539AFED0E032D8
:03208B000247E227
:0D47E200C0E0E5AC30E00353ACFED0E032A7
:032093000247EF12
:0D47EF00C0E0E58430E0035384FED0E032EA
:0320030002432471
:10432400C0E0C0F0C083C082C0D075D000C000C05F
:1043340001C002C003C004C005C006C0071247ADD7
:1043440090025CE475F00112361DFC740125F0F551
:104354008274003CF583EFF0D390025DE0945890B2
:10436400025CE094024004E4F0A3F0D007D006D04D
:1043740005D004D003D002D001D000D0D0D082D058
:0643840083D0F0D0E0320E
:10192400E490071DF0A3F0A3F0A3F0A3F0A3F0A3A9
:10193400F0A3F0A3F0A3F0A31236DF00000000E44C
:1019440090072BF0A3F0A3F0782E7C077D017BFF9A
:101954007A3A7974FE7F0612357712472B903A4C07
:10196400E493FF900001E0FEB5070D903A4DE49337
:10197400FF900002E06F6018903A4EE4936E6003AB
:10198400021FE6A393FF900002E06F6003021FE6CC
:10199400900003E0FEA3E07C002400FFEC3EFE90F8
:1019A4000721F0A3EFF0240DFFE43E900725F0A3F8
:1019B400EFF0E490071DF0A3F0900722E0240DFF60
:1019C400900721E03400FE90071DE0FCA3E0FDC376
:1019D4009FEC9E502274012DF58274003CF583E047
:1019E400FF90072CE02FF090071EE004F070CA90DF
:1019F400071DE004F080C2E490071DF0A3F0A3F0FB
:101A0400A3F090071FE0FEA3E0FFC39406EE94004A
:101A140050047D0180027D00ED604A900005E0FDE8
:101A240090071EE02DFD90071DE03400FC74152F77
:101A3400F58274073EF583E07E00B5050AEEB50431
:101A44000690072BE004F090071EE004F070069067
:101A5400071DE004F0900720E004F070A590071F34
:101A6400E004F0809D900725E0FEA3E02401F582C8
:101A740074003EF583E0FF90072CE06F6003021FC3
:101A8400E690000BE0900710F090000CE0FF903A15
:101A94006CE4936F704090000DE0FE903A6DE49317
:101AA400B5063390000EE024FE600714600F240294
:101AB4008016900259E4F0A37464F08014900259E3
:101AC400E4F0A37402F08009900259E4F0A3740ACC
:101AD400F0D202021FE6903A6AE493B50719900027
:101AE4000DE0FF903A6BE493B5070C1244377BFF8B
:101AF4007A3A796A021FCE90000CE0FF903A50E4E3
:101B040093B5071C90000DE0FF903A51E493B5079C
:101B14000F200502D205E490071BF0A3F0021FE694
:101B240090000CE0FF903A66E493B5071090000D26
:101B3400E0FF903A67E493B50703021FD590000CC9
:101B4400E0FF903A68E4936F703A90000DE0FF90E4
:101B54003A69E493B5072D90073F74FFF0A3743AF4
:101B6400F0A37448F0A3E4F0A37404F0D2067BFF5E
:101B74007A3A796812373CAC06AD077B017A04796E
:101B8400B8021FE390000CE0FF903A60E4936F709A
:101B94006B90000DE0FF903A61E4936F705E9039B2
:101BA400641236B380459039B81236B3900727E0F3
:101BB400F8A3E0F9A3E0FAA3E0FBC312368F503395
:101BC400900727E0FCA3E0FDA3E0FEA3E0FF12459D
:101BD4005D900727E0FCA3E0FDA3E0FEA3E0240062
:101BE400FFE43EFEED3401FDE43CFC900727123691
:101BF400D380B37BFF7A3A7960021FCE90000CE069
:101C0400FF903A5EE4936F706B90000DE0FF903AA2
:101C14005FE4936F705E9039BC1236B38045903A9E
:101C2400381236B3900727E0F8A3E0F9A3E0FAA34B
:101C3400E0FBC312368F5033900727E0FCA3E0FD8E
:101C4400A3E0FEA3E0FF12455D900727E0FCA3E0BC
:101C5400FDA3E0FEA3E02400FFE43EFEED3401FD1D
:101C6400E43CFC9007271236D380B37BFF7A3A79A1
:101C74005E021FCE90000CE0FF903A62E4936F7016
:101C84002490000DE0FF903A63E4936F70177A009C
:101C9400790E1227DEE4FBFAF9F8C312368F7003CB
:101CA400021FE6803390000CE0FF903A64E4936FE7
:101CB400705A90000DE0FF903A65E4936F704D7B8D
:101CC400017A00790EC2071227E2E4FBFAF9F8C39D
:101CD40012368F7003021FE612472B90073F7401E0
:101CE400F0A37407F0A3742CF0A3E4F0A304F0D2DF
:101CF400067BFF7A3A796E12373CAC06AD077B015E
:101D04007A0479B8124148D202021FE690000CE02E
:101D1400FF903A52E493B5071890000DE0FF903A13
:101D240053E493B5070BD2027BFF7A3A7952021E31
:101D34006490000CE0FF903A70E4936F704490005C
:101D44000DE0FF903A71E4936F703790000EE0B4A9
:101D5400310D7BFF7A3A79707D01124237801A7B0C
:101D6400017A00790E90076CE4F0A37406F07F000A
:101D74007EE07D7F7C0012438A7BFF7A3A79700291
:101D84001FCE90000CE0FF903A72E4936F70319094
:101D9400000DE0FF903A73E493B50724D202C2B772
:101DA4007FB87E0B12472FD2B77FF47E0112472FE4
:101DB4007BFF7A3A79727D01124237D202021FE622
:101DC40090000CE0FF903A54E4936F6003021EC24B
:101DD40090000DE0FF903A55E4936F6003021EC239
:101DE400C20590000EE064016003021EAC90001472
:101DF400E0FF900012E06F7079EF25E0FEE424002C
:101E0400FFEE347EFE7B017A0079177D007C02129E
:101E14003BFDEF7003021FE67F007E7E7D007C00A9
:101E24001245DF900745745AF07F007E7E7D007C6A
:101E34000012451B90074574A5F07F017E7E7D004E
:101E44007C0012451B900012E0900745F07F027E53
:101E54007E7D007C0012451BD2027BFF7A3A7954C6
:101E64007D011242377FE87E0312472F75C7200297
:101E74001FE6900014E025E0FEE42400FFEE347E2B
:101E8400FE7B017A0079177D007C02123BFDEF7026
:101E940003021FE6900259E4F0A37402F0D2027B1D
:101EA400FF7A3A7954021FCE90000EE06431600349
:101EB400021FE6D2027BFF7A3A7954021FCE9000C9
:101EC4000CE0FF903A56E4936F703990000DE0FFF8
:101ED400903A57E4936F702C90000EE0B4011C7B91
:101EE400017A00790FD2061230A5EF640160030273
:101EF4001FE67BFF7A3A7956021FCE7BFF7A3A7946
:101F040056021FCE90000CE0FF903A5CE4936F7091
:101F14003990000DE0FF903A5DE4936F702C9000CF
:101F24000EE0B4011C7B017A00790FD206122C74E6
:101F3400EF64016003021FE67BFF7A3A795C021FBB
:101F4400CE7BFF7A3A795C021FCE90000CE0FF90C2
:101F54003A58E4936F703490000DE0FF903A59E4DE
:101F6400936F702790000EE0B401187B017A00791A
:101F74000FC2061230A5EF640170677BFF7A3A79CD
:101F84005880477BFF7A3A7958803F90000CE0FFF5
:101F9400903A5AE4936F703990000DE0FF903A5BE9
:101FA400E4936F702C90000EE0B401187B017A006A
:101FB400790FC206122C74EF640170267BFF7A3A03
:101FC400795A80067BFF7A3A795A7D01124237802A
:101FD400117B017A00790190025CE0FCA3E0FD1220
:101FE400448B7E027F587D007B017A007901123791
:081FF40010E490025CF0A3F080
:011FFC0022C2
:0E423700900734EBF0A3EAF0A3E9F0A3EDF05A
:10424500E4A3F0A3F0A37431F0A314F0BD010F9023
:10425500073F7401F0A37407F0A3743A8012900726
:1042650037E0703690073F04F0A37407F0A3743B62
:10427500F0A3E4F0A304F0C206900734E0FBA3E04A
:10428500FAA3E0F912373C900738EEF0FCA3EFF003
:10429500FD7B017A0479B812448B7E027F587D003C
:0942A5007B017A0479B80237109C
:0B30A500900734EBF0A3EAF0A3E9F081
:1030B000E4A3F0A3F0A3F0A3F0783B7C077D017BB1
:1030C000FF7A3A797AFE7F02123577E490073DF075
:1030D000783E7C077D017BFF7A3A797CFE7F141273
:1030E000357778527C077D017BFF7A3A79907E00B4
:1030F0007F0A123577785C7C077D017BFF7A3A790D
:103100009A7E007F041235772006030232D6E490BF
:103110000737F0A3F0900737E0FEA3E0FFC3941059
:10312000EE94005030900734E0FBA3E475F00112F8
:10313000361DA9F0FA12359DFD743E2FF5827407F5
:103140003EF583EDF0900738E004F070C890073743
:10315000E004F080C09007637401F0A37407F0A34B
:10316000745CF0A3E4F0A37410F0A3E4F0A374047F
:10317000F07B017A07793E123EC1900746E0900746
:103180003DF07A07793E1227DEE4FBFAF9F8C31224
:10319000368F60030232D090073DE0540FF075F097
:1031A00008A42464F582E43439F5831236B3EF249D
:1031B00001FFE43EFEE43DFDE43CFC1247657E0079
:1031C000C006C00790073DE0540FF075F008A42436
:1031D00064F582E43439F5831236B3124765EFFCA7
:1031E000D0E02400FFD0E03CFE900739F0A3EFF0E0
:1031F000BEFF0ABFFF07E4900739F0A3F09007393C
:10320000E0FEA3E0FF7C007D141235F5E4FD90079D
:103210003DE0540FF075F008A42464F582E43439DD
:10322000F5831236C3EB2FFFEA3EFEED39FDEC3895
:10323000FCEF243CFFE43EFEE43DFDE43CFCC00426
:10324000C005C006C0077B017A07793E900775125A
:1032500036DF00000014D007D006D005D004123CA1
:10326000CA90073AE004F07006900739E004F09045
:103270000739E0FCA3E0FDECA3F0EDA3F0A3E054DC
:103280000FF075F008A42464F582E43439F5831254
:1032900036B37B017A07793B90076CE4F0A37402A4
:1032A000F012438A90073DE0540FF075F008A42413
:1032B00064F582E43439F5831236B37B017A0479FC
:1032C000B890078C7402F0A37458F0123D7080031C
:1032D0007F01227F01223006030234A4E4900737E5
:1032E000F0A3F0900737E0FEA3E0FFC39406EE944E
:1032F000005030900734E0FBA3E475F00112361D56
:10330000A9F0FA12359DFD74522FF58274073EF52F
:1033100083EDF0900738E004F070C8900737E004C0
:10332000F080C09007637401F0A37407F0A3745C8D
:10333000F0A3E4F0A37406F0A3E4F0A37404F07B1C
:10334000017A077952123EC17B017A077952C2078E
:103350001227E2E4FBFAF9F8C312368F6003023455
:103360009E900757E090073DF0540FF075F008A4C9
:1033700024BCF582E43439F5831236B3EF2401FF1F
:10338000E43EFEE43DFDE43CFC1247657E00C006E1
:10339000C00790073DE0540FF075F008A424BCF579
:1033A00082E43439F5831236B3124765EFFCD0E07E
:1033B0002400FFD0E03CFE900739F0A3EFF0BEFF01
:1033C0000ABFFF07E4900739F0A3F0900739E0FE49
:1033D000A3E0FF7C007D0A1235F5E4FD90073DE097
:1033E000540FF075F008A424BCF582E43439F58359
:1033F0001236C3EB2FFFEA3EFEED39FDEC38FCEF51
:10340000241EFFE43EFEE43DFDE43CFCC004C00598
:10341000C006C0077B017A0779529007751236DF24
:103420000000000AD007D006D005D004123CCA9094
:10343000073AE004F07006900739E004F09007398D
:10344000E0FCA3E0FDECA3F0EDA3F0A3E0540FF04B
:1034500075F008A424BCF582E43439F5831236B340
:103460007B017A07793B90076CE4F0A37402F012B9
:10347000438A90073DE0540FF075F008A424BCF592
:1034800082E43439F5831236B37B017A0479B8903B
:10349000078C7402F0A37458F0123D7080037F0112
:0634A000227F01227F01E2
:0134A6002203
:0427DE007B01D207A2
:0B27E200900765EBF0A3EAF0A3E9F01C
:1027ED00E4900774F078757C077D017BFF7A3A7968
:1027FD009EFE7F0612357790077B1236DF000000B4
:10280D0000E490077FF0A3F0A3F0A3F0A3F0A3F0F2
:10281D00200703022A3690077FF0A3F090077FE090
:10282D00FEA3E0FFC39409EE94005030900765E0DD
:10283D00FBA3E475F00112361DA9F0FA12359DFDCA
:10284D0074682FF58274073EF583EDF0900780E0F4
:10285D0004F070C890077FE004F080C0900770E02E
:10286D00900774F0540FF075F008A42464F582E419
:10287D003439F5831236B3EF2401FFE43EFEE43D17
:10288D00FDE43CFC1247657E00C006C0079007744E
:10289D00E0540FF075F008A42464F582E43439F5A2
:1028AD00831236B3124765EFFCD0E02400FFD0E071
:1028BD003CFE900781F0A3EFF0BEFF0ABFFF07E4D7
:1028CD00900781F0A3F0900774E0540FF075F008B5
:1028DD00A42464F582E43439F5831236B3022A2D2B
:1028ED00900781E0FEA3E0FF7C007D141235F5E436
:1028FD00FD900774E0540FF075F008A42464F58280
:10290D00E43439F5831236C3EB2FFFEA3EFEED3981
:10291D00FDEC38FCEF243CFFE43EFEE43DFDE43CE1
:10292D00FC90077BE0F8A3E0F9A3E0FAA3E0FBC37A
:10293D0012368F4003022C5F7B017A0479B8900721
:10294D007BE0FCA3E0FDA3E0FEA3E0FF90078C7409
:10295D0002F0A37458F0123D709007717401F0A34A
:10296D007404F0A374B8F0E490077FF0A3F0C39063
:10297D000780E0945890077FE094024003022A13E9
:10298D009007887401F0A37407F0A37468F0A3E4B2
:10299D00F0A37409F0900771E0FBA3E0FAA3E0F94E
:1029AD00123FC4EF601A900772E475F014123607E7
:1029BD00900784E004F0703D900783E004F08035CB
:1029CD007E027F587D007B017A0479B81237109012
:1029DD000783E0FEA3E0FF7C007D141235F5E4FDD6
:1029ED00900774E0540FF075F008A42464F582E4A8
:1029FD003439022C19900780E02414F090077FE001
:102A0D003400F002297B90077BE0FCA3E0FDA3E0FE
:102A1D00FEA3E02458FFEE3402FEE43DFDE43CFC51
:102A2D0090077B1236D30228ED300703022C5FE4AA
:102A3D0090077FF0A3F090077FE0FEA3E0FFC39423
:102A4D0006EE94005030900765E0FBA3E475F001AD
:102A5D0012361DA9F0FA12359DFD74752FF582748D
:102A6D00073EF583EDF0900780E004F070C8900705
:102A7D007FE004F080C090077AE0900774F0540F67
:102A8D00F075F008A424BCF582E43439F5831236D0
:102A9D00B3EF2401FFE43EFEE43DFDE43CFC1247B0
:102AAD00657E00C006C007900774E0540FF075F006
:102ABD0008A424BCF582E43439F5831236B31247E9
:102ACD0065EFFCD0E02400FFD0E03CFE900781F0E4
:102ADD00A3EFF0BEFF0ABFFF07E4900781F0A3F05C
:102AED00900774E0540FF075F008A424BCF582E44F
:102AFD003439F5831236B3022C56900781E0FEA3CC
:102B0D00E0FF7C007D0A1235F5E4FD900774E0547A
:102B1D000FF075F008A424BCF582E43439F5831266
:102B2D0036C3EB2FFFEA3EFEED39FDEC38FCEF240A
:102B3D001EFFE43EFEE43DFDE43CFC90077BE0F827
:102B4D00A3E0F9A3E0FAA3E0FBC312368F40030222
:102B5D002C5F7B017A0479B890077BE0FCA3E0FD44
:102B6D00A3E0FEA3E0FF90078C7402F0A37458F06D
:102B7D00123D709007717401F0A37404F0A374B842
:102B8D00F0E490077FF0A3F0C3900780E094589095
:102B9D00077FE094024003022C3C9007887401F0FB
:102BAD00A37407F0A37475F0A3E4F0A37406F0907A
:102BBD000771E0FBA3E0FAA3E0F9123FC4EF601A3E
:102BCD00900772E475F00A123607900784E004F05E
:102BDD00704C900783E004F080447E027F587D00A6
:102BED007B017A0479B8123710900783E0FEA3E0D9
:102BFD00FF7C007D0A1235F5E4FD900774E0540F5B
:102C0D00F075F008A424BCF582E43439F58312364E
:102C1D00C3EB2FFFEA3EFEED39FDEC38FC229007A9
:102C2D0080E0240AF090077FE03400F0022B9590AD
:102C3D00077BE0FCA3E0FDA3E0FEA3E02458FFEE3C
:102C4D003402FEE43DFDE43CFC90077B1236D302DA
:102C5D002B077E027F587D007B017A0479B81237ED
:062C6D0010E4FFFEFDFC77
:012C7300223E
:0B2C7400900734EBF0A3EAF0A3E9F0B6
:102C7F00E4A3F0A3F078397C077D017BFF7A3A79E2
:102C8F00A4FE7F02123577E490073BF0783C7C0777
:102C9F007D017BFF7A3A79A6FE7F06123577900782
:102CAF00421236DF0000000078467C077D017BFF73
:102CBF007A3A79AC7E007F09123577784F7C077DA1
:102CCF00017BFF7A3A79B57E007F141235772006A3
:102CDF0003022EB4E4900763F0A3F0900763E0FEC5
:102CEF00A3E0FFC39409EE94005030900734E0FB4B
:102CFF00A3E475F00112361DA9F0FA12359DFD748B
:102D0F00462FF58274073EF583EDF0900764E004DB
:102D1F00F070C8900763E004F080C090074EE09019
:102D2F00073BF0540FF075F008A42464F582E434E7
:102D3F0039F5831236B3EF2401FFE43EFEE43DFD87
:102D4F00E43CFC1247657E00C006C00790073BE0DD
:102D5F00540FF075F008A42464F582E43439F58338
:102D6F001236B3124765EFFCD0E02400FED0E03CF2
:102D7F00900737F0A3CEF07B017A077946D207127E
:102D8F0027E29007421236D3E4FFFEFDFC90074284
:102D9F00E0F8A3E0F9A3E0FAA3E0FBC312368F70CB
:102DAF00037F0122900737E0FEA3E0FF7C007D1434
:102DBF001235F5E4FD90073BE0540FF075F008A4D1
:102DCF002464F582E43439F5831236C3EB2FFFEA1E
:102DDF003EFEED39FDEC38FCEF243CFFE43EFEE413
:102DEF003DFDE43CFC7B017A07794F90078CE4F0C2
:102DFF00A37414F0123D70900742E0FCA3E0FDA312
:102E0F00E0FEA3E0FF7B017A07794F90076CE4F0B7
:102E1F00A37414F012438A7E007F147DFF7B017A26
:102E2F0007794F123710900737E0FEA3E0FF7C00C1
:102E3F007D141235F5E4FD90073BE0540FF075F06B
:102E4F0008A42464F582E43439F5831236C3EB2FDA
:102E5F00FFEA3EFEED39FDEC38FCEF243CFFE43E8B
:102E6F00FEE43DFDE43CFC7B017A07794F90076C53
:102E7F00E4F0A37414F012438A900738E024FFF0B3
:102E8F00900737E034FFF0E0FCA3E0FDECA3F0ED9A
:102E9F00A3F0A3E0540FF075F008A42464F582E4C6
:102EAF0034390230883006030230A2E4900763F011
:102EBF00A3F0900763E0FEA3E0FFC39406EE940037
:102ECF005030900734E0FBA3E475F00112361DA9D2
:102EDF00F0FA12359DFD743C2FF58274073EF58391
:102EEF00EDF0900764E004F070C8900763E004F021
:102EFF0080C0900741E090073BF0540FF075F00849
:102F0F00A424BCF582E43439F5831236B3EF2401DF
:102F1F00FFE43EFEE43DFDE43CFC1247657E00C04D
:102F2F0006C00790073BE0540FF075F008A424BCCF
:102F3F00F582E43439F5831236B3124765EFFCD0CE
:102F4F00E02400FED0E03C900737F0A3CEF07B01E9
:102F5F007A07793CC2071227E29007421236D3E470
:102F6F00FFFEFDFC900742E0F8A3E0F9A3E0FAA30F
:102F7F00E0FBC312368F70037F0122900737E0FE0C
:102F8F00A3E0FF7C007D0A1235F5E4FD90073BE0DE
:102F9F00540FF075F008A424BCF582E43439F5839E
:102FAF001236C3EB2FFFEA3EFEED39FDEC38FCEF96
:102FBF00241EFFE43EFEE43DFDE43CFC7B017A076A
:102FCF00794F90078CE4F0A3740AF0123D709007CC
:102FDF0042E0FCA3E0FDA3E0FEA3E0FF7B017A0744
:102FEF00794F90076CE4F0A3740AF012438A7E00C5
:102FFF007F0A7DFF7B017A07794F123710900737D1
:10300F00E0FEA3E0FF7C007D0A1235F5E4FD90079A
:10301F003BE0540FF075F008A424BCF582E434397A
:10302F00F5831236C3EB2FFFEA3EFEED39FDEC3888
:10303F00FCEF241EFFE43EFEE43DFDE43CFC7B017F
:10304F007A07794F90076CE4F0A3740AF012438A61
:10305F00900738E024FFF0900737E034FFF0E0FCF2
:10306F00A3E0FDECA3F0EDA3F0A3E0540FF075F097
:10307F0008A424BCF582E43439F5831236B37B01FE
:10308F007A07793990076CE4F0A37402F012438A3F
:05309F007F01227F000B
:0130A4002209
:10443700C2007A3A793C1244857FFA7E0012472FF0
:104447007A3A793D1244857FFA7E0012472F7BFF27
:104457007A3A793E1244877FD07E0712472F7BFF37
:104467007A3A793F1244877FD07E0712472F7BFF26
:0E4477007A3A79407D087C0012448BD20022F4
:064485007BFF7D017C00BD
:10448B0090073CEBF0A3EAF0A3E9F0A3ECF0A3ED6B
:01449B00F030
:10449C00E4FFFED3900740E09F90073FE09E40264C
:1044AC0090073CE0FBA3E475F00112361DA9F0FA6D
:1044BC0012359DF599E59830E1FB5398FD00000FFE
:0644CC00BF00010E80CDCF
:0144D20022C7
:1044D30090071DEBF0A3EAF0A3E9F0A3ECF0A3ED42
:0144E300F0E8
:1044E400E4FFFED3900721E09F900720E09E402642
:1044F40090071DE0FBA3E475F00112361DA9F0FA44
:1045040012359DF585E58430E1FB5384FD00000FF1
:06451400BF00010E80CD86
:01451A00227E
:0D47AD00AFA05391FB439204D29200C29240
:0147BA0022DC
:10414800900734EBF0A3EAF0A3E9F0A3ECF0A3EDB9
:01415800F076
:10415900E4A3F0A3F0209356D29420934FF59575DC
:1041690096FF4391045392FB900737E0FEA3E0FFCB
:10417900C390073AE09F900739E09E502B9007348F
:10418900E0FBA3E475F00112361DA9F0FA12359D82
:10419900122026B2C42092FD90073AE004F070C8BC
:1041A900900739E004F080C0C2948002C294C2949E
:0641B9007595FFE4F59688
:0141BF0022DD
:103EA300A3F0900748E0FFA3E0900766CFF0A3EFED
:0E3EB300F0A3E4F07402A3F07B017A0479B866
:0B3EC100900760EBF0A3EAF0A3E9F02B
:103ECC00E490076AF0A3F0900768E0FEA3E0FFA37C
:103EDC00E0FCA3E0FDC39FEC9E504C900763E0FB1D
:103EEC00A3E0FAA3E0F98D828C831235B6FF90071C
:103EFC0060E0FBA3E0FAA3E0F9900766E0FCA3E026
:103F0C00FDE92DF9EA3CFA90076AE0FCA3E029F9F7
:103F1C00EA3CFAEF1235E390076BE004F070A890DE
:073F2C00076AE004F080A029
:013F3300226B
:0B373C0090073CEBF0A3EAF0A3E9F0DB
:1037470078447C077D017BFF7A3A79C97E007F0246
:10375700123577E4900746F0A3F0A3F0A3F0A3F0A7
:10376700A3F030061790074AF0A37402F09007639E
:1037770074FFF0A3743AF0A3744C801920061990D3
:10378700074AE4F0A37402F090076374FFF0A37490
:103797003AF0A3744E123EA490074AE0FEA3E0FF5E
:1037A700900749E02FF0900748E03EF0900742E08D
:1037B700FCA3E0FDECA3F0EDA3F090074AE4F0A32F
:1037C7007402F07B0190076314F0A37407F0A374ED
:1037D70044F0900748E0FFA3E0900766CFF0A3EF1F
:1037E700F0A3E4F0A37402F0123EBD90074AE0FE96
:1037F700A3E0FF900749E02FF0900748E03EF090E4
:10380700074AE4F0A37406F09007637401F0A37409
:1038170007F0A37415F0900748E0FFA3E090076650
:10382700CFF0A3EFF0A3E4F07406123EB990074A75
:10383700E0FEA3E0FF900749E02FF0900748E03E45
:10384700F0900710E0FF900748E0FCA3E024B8F5EC
:103857008274043CF583EFF0900749E004F07006AA
:10386700900748E004F090074AE4F0A37402F09050
:10387700073CE0F9A3E0FAA3E0900763C9F0A3EAE5
:10388700F0E9123EA390074AE0FEA3E0FF90074944
:10389700E02FF0900748E03EF0900742E0FEA3E0FB
:1038A700FFD39400EE9400404890074AEEF0A3EF50
:1038B700F090073FE0F9A3E0FAA3E0900763C9F0AF
:1038C700A3EAF0A3E9F0900748E0FDA3E0900766BC
:1038D700CDF0A3EDF0A3EEF0A3EF123EBA90074AA6
:1038E700E0FEA3E0FF900749E02FF0900748E03E95
:1038F700F0E4900744F0900746F0A3F0900748E003
:10390700FEA3E0FF900746E0FCA3E0FDC39FEC9E0B
:10391700502274B82DF58274043CF583E0FF9007BC
:1039270044E02FF0900747E004F070D0900746E09E
:1039370004F080C89007457416F09007637401F08F
:10394700A37407F07444123EA3900749E02402F0E1
:0C395700900748E03400F0E0FEA3E0FF21
:013963002241
:04472B007F647E0029
:10472F00E4FDFCC3ED9FEC9E5011000079167B80D9
:0B473F00DBFED9FC0DBD00010C80E882
:01474A00224C
:06202600F5A07F0A7E0018
:10202C00E4FDFCC3ED9FEC9E500B7B03DBFE0DBD72
:05203C0000010C80EE24
:01204100227C
:10100C00023F34E493A3F8E493A34003F68001F287
:10101C0008DFF48029E493A3F85407240CC8C333E5
:10102C00C4540F4420C8834004F456800146F6DFB4
:10103C00E4800B0102040810204080902096E47E8E
:10104C00019360BCA3FF543F30E509541FFEE493A9
:10105C00A360010ECF54C025E060A840B8E493A370
:10106C00FAE493A3F8E493A3C8C582C8CAC583CA9B
:10107C00F0A3C8C582C8CAC583CADFE9DEE780BE53
:0127DD0000FB
:1034A700E709F608DFFA8046E709F208DFFA803E07
:1034B70088828C83E709F0A3DFFA8032E309F608F4
:1034C700DFFA8078E309F208DFFA807088828C835C
:1034D700E309F0A3DFFA806489828A83E0A3F60810
:1034E700DFFA805889828A83E0A3F208DFFA804CEA
:1034F70080D280FA80C680D4806980F280338010C1
:1035070080A680EA809A80A880DA80E280CA803329
:1035170089828A83ECFAE493A3C8C582C8CCC583A1
:10352700CCF0A3C8C582C8CCC583CCDFE9DEE78071
:103537000D89828A83E493A3F608DFF9ECFAA9F0F0
:10354700EDFB2289828A83ECFAE0A3C8C582C8CC46
:10355700C583CCF0A3C8C582C8CCC583CCDFEADE5F
:10356700E880DB89828A83E493A3F208DFF980CCC1
:1035770088F0EF60010E4E60C388F0ED2402B404BA
:103587000050B9F582EB2402B4040050AF23234561
:0635970082239034F7735B
:10359D00BB010689828A83E0225002E722BBFE022C
:0935AD00E32289828A83E493225F
:1035B600BB010CE58229F582E5833AF583E02250CA
:1035C60006E92582F8E622BBFE06E92582F8E22214
:0D35D600E58229F582E5833AF583E493222E
:1035E300BB010689828A83F0225002F722BBFE01C7
:0235F300F322C1
:1035F500EF8DF0A4A8F0CF8CF0A428CE8DF0A42EEA
:02360500FE22A3
:10360700C5F0F8A3E028F0C5F0F8E582158270024E
:063617001583E038F022EB
:10361D00A3F8E0C5F025F0F0E58215827002158360
:06362D00E0C838F0E822BD
:10363300E88FF0A4CC8BF0A42CFCE98EF0A42CFC36
:103643008AF0EDA42CFCEA8EF0A4CDA8F08BF0A4B4
:103653002DCC3825F0FDE98FF0A42CCD35F0FCEB13
:103663008EF0A4FEA9F0EB8FF0A4CFC5F02ECD39D8
:0F367300FEE43CFCEAA42DCE35F0FDE43CFC2245
:0D368200CFF4CFCEF4CECDF4CDCCF4CC22DD
:10368F00EB9FF5F0EA9E42F0E99D42F0E89C45F091
:01369F002208
:1036A000E8600FECC313FCED13FDEE13FEEF13FF08
:0336B000D8F1222C
:1036B300E493FC740193FD740293FE740393FF225D
:1036C300E493F8740193F9740293FA740393FB225D
:0C36D300ECF0A3EDF0A3EEF0A3EFF0226A
:1036DF00A8828583F0D083D0821236F61236F61286
:1036EF0036F61236F6E473E493A3C583C5F0C583AB
:1036FF00C8C582C8F0A3C583C5F0C583C8C582C835
:01370F002297
:103FC400900785EBF0A3EAF0A3E9F0900788E0FB03
:103FD400A3E0FAA3E0F912359DFE900785E0FBA368
:103FE400E0FAA3E0F912359DFF6E702AEF600E909F
:103FF400078B74FFF5F012360745F070037F00223B
:10400400900786E475F001123607900789E475F08D
:104014000112360780B5900785E0FBA3E0FAA3E020
:10402400F912359DFDD3EE6480F8ED648098400369
:104034007F0122900788E0FBA3E0FAA3E0F91235A0
:074044009DFFC3ED9FFF2269
:10371000EF4E6012EF60010EEDBB010B89828A83D0
:10372000F0A3DFFCDEFA2289F05007F709DFFCA9DD
:0C373000F022BBFEFCF309DFFCA9F02234
:00000001FF
