:03000000021000EB
:03000300022003D5
:03000B0002200BC5
:03001300022013B5
:03001B0002201BA5
:0300230002202395
:03002B0002202B85
:0300330002203375
:03003B0002203B65
:0300430002204355
:03004B0002204B45
:0300530002205335
:03005B0002205B25
:0300630002206315
:03006B0002206B05
:03007300022073F5
:03007B0002207BE5
:03008300022083D5
:03008B0002208BC5
:03009300022093B5
:03009B0002209BA5
:0300A3000220A395
:0300AB000220AB85
:0300B3000220B375
:0300BB000220BB65
:0C100000787FE4F6D8FD758121021047CE
:106DD800900ABB124A1375C78175C502900ABBA3F6
:106DE800A3E0FEA3E4FFE4FDFC78081249E08FC3AA
:106DF800900ABBE0FCA3E0FDA3E0FEA3E0FF8FC484
:106E0800A3E0F5C2C2AF75C65A75C6A500D2AF02D7
:026E18007122E5
:10204600900ABB124A13E4F5C275C78175C50190A3
:102056000ABBA3A3E0FEA3E4FFE4FDFC7808124953
:10206600E08FC3900ABBE0FCA3E0FDA3E0FEA3E083
:10207600FFE48FC4C2AF75C65A75C6A500D2AF12AB
:052086007122AFC2222F
:106E5B00900ABB124A1375C78175C503900ABBA371
:106E6B00A3E0FEA3E4FFE4FDFC78081249E08FC326
:106E7B00900ABBE0FCA3E0FDA3E0FEA3E0FFE48FE0
:0F6E8B00C4C2AF75C65A75C6A500D2AF02712238
:0D712200E4F5C7F5C5F5C675C380F5C422B8
:105AF300900AAEEEF0A3EFF0A3ECF0A3EDF0A3EB6E
:075B0300F0A3EAF0A3E9F0B2
:105B0A00E4A3F0A3F0A3F0A3F0A3F0A3F0900AAEED
:105B1A00E0FEA3E0FFE4FCFD126E5BE4900AB5F040
:105B2A00A3F0900AB0E0FEA3E0FFC3900AB6E09F9C
:105B3A00900AB5E09E5079900AAEE0FEA3E0FFE439
:105B4A00FCFD900AB2E0FBA3E0FAA3E0F9A3E0F8B7
:105B5A00A3E0F5828883124882900ABFF0126DD8BA
:105B6A00900AAEE0FEA3E0FFE4FCFD122046900A94
:105B7A00B2E0FBA3E0FAA3E0F9A3E0FCA3E0F5821C
:105B8A008C831248826F60061271227F0022900A6B
:105B9A00AFE004F07006900AAEE004F0900AB6E0B6
:105BAA0004F06003025B2C900AB5E004F0025B2C5F
:055BBA001271227F01C1
:015BBF0022C3
:0F6ED800A3E0FDA3A3E4FFFEE47810FC1249E061
:056EE700900C46EFF0E5
:106EEC00E4A3F0C286900C46E030E704D285800221
:106EFC00C28512716CD286900C46E025E0F0A3E0BE
:086F0C0004F0E0C3940840DB2F
:016F1400225A
:106F4E00E4900C47F0D287C286900C46F0D286129F
:106F5E00716C900C47E025E0F0308704E04401F0BE
:106F6E00C286900C46E004F0E0C3940840DF900C1B
:036F7E0047E0FFEA
:016F810022ED
:03712F00124A13EE
:0A713200C2847F06126EE7D28422A9
:10202600E4900C45F0C2847F05126EE7126F4E9065
:092036000C45EFF020E0F5D28426
:01203F00227E
:106F8200E4FE900C76F0FDC2847F90126EE7E4FF7F
:106F9200126EE7E4FF126EE7E4FF126EE7126F4E25
:106FA200900C76EFF0126F4EAD07D284900C76E023
:036FB200FEEDFFF2
:016FB50022B9
:0766CB00F07B017A0B793C22
:1066D200900C3CEBF0A3EAF0A3E9F0A312712FC2F5
:1066E200847F02126EE7900C3F126ED8900C3FA38B
:1066F200A3E0FEA3E4FFE4FD7808126EE3900C3FF2
:10670200E0FCA3E0FDA3E0FEA3E0FF126EE7900C25
:106712004374FFF5F012493E45F0601E900C3CE0D8
:10672200FBA3E0FAA3E0F9124869FF126EE7900CAE
:0F6732003DE475F00112492880D4D2840220265C
:07665300F07B017A0B793C9A
:10665A00900C3CEBF0A3EAF0A3E9F0A3124A13C2B0
:10666A00847F03126EE7900C3F126ED8900C3FA302
:10667A00A3E0FEA3E4FFE4FDFC78081249E0126EF1
:10668A00E7900C3FE0FCA3E0FDA3E0FEA3E0FF12CD
:10669A006EE7900C4374FFF5F012493E45F0601E18
:1066AA00126F4E900C3CE0FBA3E0FAA3E0F9EF1264
:1066BA0048E2900C3DE475F00112492880D4D28456
:0166CA0022AD
:106E9A00900B2E12712FC2847F20126EE7900B2E58
:106EAA00126ED8900B2EA3A3E0FEA3E4FFE4FDFC30
:106EBA0078081249E0126EE7900B2EE0FCA3E0FD81
:0E6ECA00A3E0FEA3E0FF126EE7D284022026B2
:106E1A00900AAE124A13127132C2847FD8126EE7F8
:106E2A00900AAE126ED8900AAEA3A3E0FEA3E4FFC6
:106E3A00E4FDFC78081249E0126EE7900AAEE0FC25
:106E4A00A3E0FDA3E0FEA3E0FF126EE7D2840220D6
:016E5A002611
:0F70F700127132C2847FC7126EE7D28402202644
:062B3F00900B08124A137E
:102B4500E4900B2AF0A3F0A3F0A3F0900B1C124A1B
:102B55001F00001000900B1CE0FCA3E0FDA3E0FEAD
:102B6500A3E024FFFFEE34FFFEED34FFFDEC34FF60
:102B7500FC1249C2900B08E0F8A3E0F9A3E0FAA320
:102B8500E05FFFEA5EFEE95DFDE85CFC900B0E127E
:102B95004A13900B1CE0FCA3E0FDA3E0FEA3E0FFBD
:102BA500900B0EE0F8A3E0F9A3E0FAA3E02FFFEA0B
:102BB5003EFEE93DFDE83CFCEF24FFFFEE34FFFE61
:102BC500ED34FFFDEC34FFFCA3124A13900B1CE01F
:102BD500FCA3E0FDA3E0FEA3E024FFFFEE34FFFE2F
:102BE500ED34FFFDEC34FFFC1249C2C004C005C042
:102BF50006AB07900B0CE0FEA3E0FFE4FCFD900B99
:102C050008E0F8A3E0F9A3E0FAA3E02FFFEA3EFE0F
:102C1500ED39FDEC38FCD002D001D000EF5BFFEEC2
:102C25005AFEED59FDEC58FC900B16124A13900B09
:102C35001CE0FCA3E0FDA3E0FEA3E0FF900B16E083
:102C4500F8A3E0F9A3E0FAA3E02FFFEA3EFEE93D91
:102C5500FDE83CFCEF24FFFFEE34FFFEED34FFFD05
:102C6500EC34FFFC900B12E0F8A3E0F9A3E0FAA323
:102C7500E0FBC31249CF6003022F6BFF7EF07D7F1F
:102C8500FC1270E3900B20124A1F007FF000900B9E
:102C95000EE0FCA3E0FDA3E0FEA3E0FF900B2412F1
:102CA5004A13900B0EA3A3E0FEA3E0FBAA06900B2C
:102CB50008A3A3E0FEA3E0C39BFFEE9A900B28F0C8
:102CC500A3EFF0900B28E0FCA3E0FDECFF7E00A352
:102CD500EEF0A3EFF0FBAF05A3EEF0A3EFF0D3EB1F
:102CE5009400E49400900B24E0FC406E125712907F
:102CF5000B2BE0FEE4FCFD900B20E0F8A3E0F9A32C
:102D0500E0FAA3E02400FFEA3EFEED39FDEC38FCD5
:102D1500C004C005C006C007900B2BE0FEE4FCFD17
:102D2500900B24E0F8A3E0F9A3E0FAA3E02400FF68
:102D3500EA3EFEED39FDEC38FC900B32124A139059
:102D45000B2CE0FFA3E0900B36CFF0A3EFF0C2070A
:102D5500D007D006D005D004802EA3E0FDA3E0FE69
:102D6500A3E0FF900B32124A13900B2CE0FFA3E077
:102D7500900B36CFF0A3EFF0C207900B20E0FCA339
:102D8500E0FDA3E0FEA3E0FF125740900B08E0FC36
:102D9500A3E0FDA3E0FEA3E02400FFEE34F0FEED8A
:102DA500347FFDE43CFC900B0EE0F8A3E0F9A3E0D2
:102DB500FAA3E0FBC3EF9BFBEE9AFAED99F9EC98C9
:102DC500F8900B0CE0FEA3E0FFE4FCFDEB2FFFEA1F
:102DD5003EFEED39FDEC38FC900B20124A13900BAA
:102DE5000CE0FEA3E0FFE4FCFD900B08E0F8A3E097
:102DF500F9A3E0FAA3E02FFFEA3EFEED39FDEC383A
:102E0500FC900B24124A13900B08A3A3E0FEA3E049
:102E1500FBAA06900B12A3A3E0FEA3E0C39BFFEE63
:102E25009AFE900B0CE0FCA3E0FDC3EF9DFFEE9C2A
:102E3500CF2401CF3400900B28F0A3EFF0900B289E
:102E4500E0FCA3E0FDECFF7E00A3EEF0A3EFF0FBBA
:102E5500AF05A3EEF0A3EFF0D3EB9400E49400905C
:102E65000B24E0FC406E125712900B2BE0FEE4FCA5
:102E7500FD900B20E0F8A3E0F9A3E0FAA3E024001D
:102E8500FFEA3EFEED39FDEC38FCC004C005C00686
:102E9500C007900B2BE0FEE4FCFD900B24E0F8A3AB
:102EA500E0F9A3E0FAA3E02400FFEA3EFEED39FDD8
:102EB500EC38FC900B32124A13900B2CE0FFA3E088
:102EC500900B36CFF0A3EFF0C207D007D006D005A0
:102ED500D004802EA3E0FDA3E0FEA3E0FF900B321B
:102EE500124A13900B2CE0FFA3E0900B36CFF0A312
:102EF500EFF0C207900B20E0FCA3E0FDA3E0FEA3EA
:102F0500E0FF1257401270D5900B0EE0FCA3E0FDD8
:102F1500A3E0FEA3E0FF900B20124A13900B2412AE
:102F25004A1F007FF000900B1CA3A3E0FFA3E090D5
:102F35000B28CFF0A3EFF0900B28E0FCA3E0FDEC0D
:102F4500FF7E00A3EEF0A3EFF0FBAF05A3EEF0A329
:102F5500EFF0D3EB9400E49400900B24E0FC5003D5
:102F65000233A50233377F007EF07D7F7C0012702F
:102F7500E3900B20124A1F007FF000900B0EE0FC3F
:102F8500A3E0FDA3E0FEA3E0FF900B24124A1390FB
:102F95000B0EA3A3E0FEA3E0FBAA06900B08A3A3D8
:102FA500E0FEA3E0C39BFFEE9A900B28F0A3EFF0A1
:102FB500900B28E0FCA3E0FDECFF7E00A3EEF0A360
:102FC500EFF0FBAF05A3EEF0A3EFF0D3EB9400E435
:102FD5009400900B24E0FC406E125712900B2BE0EE
:102FE500FEE4FCFD900B20E0F8A3E0F9A3E0FAA3D2
:102FF500E02400FFEA3EFEED39FDEC38FCC004C0DC
:1030050005C006C007900B2BE0FEE4FCFD900B24E9
:10301500E0F8A3E0F9A3E0FAA3E02400FFEA3EFE0E
:10302500ED39FDEC38FC900B32124A13900B2CE075
:10303500FFA3E0900B36CFF0A3EFF0C207D007D087
:1030450006D005D004802EA3E0FDA3E0FEA3E0FF9B
:10305500900B32124A13900B2CE0FFA3E0900B3635
:10306500CFF0A3EFF0C207900B20E0FCA3E0FDA397
:10307500E0FEA3E0FF1257401270D5900B0EE0FC66
:10308500A3E0FDA3E0FEA3E0FF900B20124A1390FE
:103095000B24124A1F007FF000900B1CA3A3E0FF36
:1030A500A3E0900B28CFF0A3EFF0900B28E0FCA352
:1030B500E0FDECFF7E00A3EEF0A3EFF0FBAF05A370
:1030C500EEF0A3EFF0D3EB9400E49400900B24E032
:1030D500FC406E125712900B2BE0FEE4FCFD900BAA
:1030E50020E0F8A3E0F9A3E0FAA3E02400FFEA3E1C
:1030F500FEED39FDEC38FCC004C005C006C00790E4
:103105000B2BE0FEE4FCFD900B24E0F8A3E0F9A313
:10311500E0FAA3E02400FFEA3EFEED39FDEC38FCC1
:10312500900B32124A13900B2CE0FFA3E0900B3664
:10313500CFF0A3EFF0C207D007D006D005D00480AA
:103145002EA3E0FDA3E0FEA3E0FF900B32124A138D
:10315500900B2CE0FFA3E0900B36CFF0A3EFF0C26D
:1031650007900B20E0FCA3E0FDA3E0FEA3E0FF1227
:1031750057407F007EF07D7F7C001270E3900B0846
:10318500A3A3E0FEA3E0FBAA06900B12A3A3E0FE17
:10319500A3E0C39BFFEE9ACF2401CF3400FEC3907A
:1031A5000B0DE09FFF900B0CE09EFE900B1AF0FAC2
:1031B500A3EFF0FBE42FFFEE34F0FEE4347FFDE4F3
:1031C50033FC900B20124A13AF03AE02E4FCFD90D2
:1031D5000B16E0F8A3E0F9A3E0FAA3E02FFFEA3E1F
:1031E500FEED39FDEC38FC900B24124A13900B1CB4
:1031F500A3A3E0FEA3E0FF900B1AE0FCA3E0FDC350
:10320500EF9DFFEE9C900B28F0A3EFF0900B28E0CC
:10321500FCA3E0FDECFF7E00A3EEF0A3EFF0FBAF17
:1032250005A3EEF0A3EFF0D3EB9400E49400900B2C
:1032350024E0FC406E125712900B2BE0FEE4FCFDDF
:10324500900B20E0F8A3E0F9A3E0FAA3E02400FF47
:10325500EA3EFEED39FDEC38FCC004C005C006C0F1
:1032650007900B2BE0FEE4FCFD900B24E0F8A3E0B7
:10327500F9A3E0FAA3E02400FFEA3EFEED39FDECF8
:1032850038FC900B32124A13900B2CE0FFA3E09010
:103295000B36CFF0A3EFF0C207D007D006D005D08C
:1032A50004802EA3E0FDA3E0FEA3E0FF900B321205
:1032B5004A13900B2CE0FFA3E0900B36CFF0A3EF61
:1032C500F0C207900B20E0FCA3E0FDA3E0FEA3E025
:1032D500FF125740900B161270D8900B16E0FCA306
:1032E500E0FDA3E0FEA3E0FF900B20124A13900B34
:1032F50024124A1F007FF000900B1CA3A3E0FFA33C
:10330500E0900B28CFF0A3EFF0900B28E0FCA3E0B2
:10331500FDECFF7E00A3EEF0A3EFF0FBAF05A3EEFF
:10332500F0A3EFF0D3EB9400E49400900B24E0FCC1
:10333500406E125712900B2BE0FEE4FCFD900B2023
:10334500E0F8A3E0F9A3E0FAA3E02400FFEA3EFEDB
:10335500ED39FDEC38FCC004C005C006C007900B74
:103365002BE0FEE4FCFD900B24E0F8A3E0F9A3E0DC
:10337500FAA3E02400FFEA3EFEED39FDEC38FC90AF
:103385000B32124A13900B2CE0FFA3E0900B36CFC3
:10339500F0A3EFF0C207D007D006D005D004802EE9
:1033A500A3E0FDA3E0FEA3E0FF900B32124A1390C9
:1033B5000B2CE0FFA3E0900B36CFF0A3EFF0C20794
:1033C500900B20E0FCA3E0FDA3E0FEA3E0FF125775
:0133D50040B7
:0133D60022D4
:105DDA00900B08124A13900B0CEBF0A3EAF0A3E91C
:015DEA00F0C8
:105DEB00900B08E0FCA3E0FDA3E0FEA3E0FF807BAB
:105DFB00900B0FE0FCA3E0FDA3E0FEA3E0FF900BF4
:105E0B0008E0F8A3E0F9A3E0FAA3E02FFFEA3EFED7
:105E1B00E93DFDE83CFC900B13E0F8A3E0F9A3E0AF
:105E2B00FAA3E0FBC31249CF504A900B13E0FCA33B
:105E3B00E0FDA3E0FEA3E0FF900B0CE0FBA3E475F9
:105E4B00F00112493EA9F0FA124869900B1BF012AF
:105E5B0070E6900B13E0FCA3E0FDA3E0FEA3E024AF
:105E6B0001FFE43EFEE43DFDE43CFC900B13124AC3
:045E7B0013025DFBB6
:015E7F002200
:106A0900900AFF124A13900B03EBF0A3EAF0A3E9F3
:106A1900F0900AFFE0FCA3E0FDA3E0FEA3E0FF90F5
:106A29000B06E0FBA3E0900B0CCBF0A3EBF0122BD1
:106A39003F900B03E0FBA3E0FAA3E0F9A3E0FEA378
:106A4900E0FFE4FCFD900B0F124A13900AFFE0FCF3
:0C6A5900A3E0FDA3E0FEA3E0FF025DDA75
:0F5FC700900B24EBF0A3EAF0A3E9F0A3124A1326
:105FD600900B2D124A1F00000000900B2BE0FEA331
:105FE600E0FFE4FCFDA3E0F8A3E0F9A3E0FAA3E0F8
:105FF600FBC31249CF505E900B2DE0FCA3E0FDA33E
:10600600E0FEA3E0FF900B27E0F8A3E0F9A3E0FA97
:10601600A3E02FFFEA3EFEE93DFDE83CFC12706D71
:10602600900B24E0FBA3E475F00112493EA9F0FAB7
:10603600EF1248E2900B2DE0FCA3E0FDA3E0FEA3E7
:10604600E02401FFE43EFEE43DFDE43CFC900B2D24
:10605600124A138085900B24E0FBA3E0FAA3E0F933
:016066002217
:10571200A3E0FDA3E0FEA3E0FF900B32124A139038
:105722000B2AE0FFA3E0900B36CFF0A3EFF0D207F5
:0E573200900B20E0FCA3E0FDA3E0FEA3E0FF4F
:06574000900B2E124A132B
:10574600200703025807900B38124A1F000000007A
:10575600900B36E0FEA3E0FFE4FCFDA3E0F8A3E037
:10576600F9A3E0FAA3E0FBC31249CF400302584372
:10577600E4FF7E01FDFC900B38E0F8A3A3A3E01242
:105786004973900B32E0F8A3E0F9A3E0FAA3E02F07
:10579600FFEA3EFEE93DFDE83CFC900C437401F057
:1057A600A3E4126653E4FF7E01FDFC900B38E0F89B
:1057B600A3E0F9A3E0FAA3E0FB124973900B2EE0F5
:1057C600F8A3E0F9A3E0FAA3E02FFFEA3EFEE93DE5
:1057D600FDE83CFC900C437401F0A3E41266CB9008
:1057E6000B38E0FCA3E0FDA3E0FEA3E02401FFE408
:1057F6003EFEE43DFDE43CFC900B38124A13025792
:1058060056900B32E0FCA3E0FDA3E0FEA3E0FFA36D
:10581600E0FBA3E0900C43CBF0A3EB126653900B96
:105826002EE0FCA3E0FDA3E0FEA3E0FF900B36E034
:0D583600FBA3E0900C43CBF0A3EB1266CB7C
:015843002242
:06646000900C4A124A13E1
:10646600900C53124A1F00000000900C4EE0FCA353
:10647600E0FDA3E0FEA3E0FF900C53E0F8A3E0F9F3
:10648600A3E0FAA3E0FBC31249CF5052900C53E0AD
:10649600FCA3E0FDA3E0FEA3E0FF900C4AE0F8A316
:1064A600E0F9A3E0FAA3E02FFFEA3EFEE93DFDE8AE
:1064B6003CFC900C52E0900B1BF01270E6900C53D3
:1064C600E0FCA3E0FDA3E0FEA3E02401FFE43EFE22
:0E64D600E43DFDE43CFC900C53124A13808C14
:0164E4002295
:0E70D500900B0EE0FCA3E0FDA3E0FEA3E0FFA5
:0370E300026E9AA0
:1070E6007B017A0B791B900C43E4F0A304F0026653
:0170F600D2C7
:10706D007B017A0B7931900C43E4F0A304F01266A6
:06707D005A900B31E0FF08
:0170830022EA
:08716C007F01AE071FEE70FA6F
:0171740022F8
:07717500D2B2C288D2A822A9
:106BC20053B4F753B3F753B4EF53B3EF4393F043D4
:106BD20094F07595FFE4F59653B17F43B28053B1BB
:106BE200F743B2085391EF4392105391DF4392203F
:106BF2004391045392FB4391085392F743B30453D6
:106C0200B4FB53B3DF53B4DFC294C295D2C4D2C330
:016C1200225F
:10200E00538E7F5389F0E4F58A758CB8C28DD28CCD
:03201E00D2A92222
:106F150053BAFB53BAFD43BA01E5A2543FF5A27536
:106F25009850759A5075AC5075841075D7D075D634
:106F3500FF75D5C075D4FD43D10243D108758E14B4
:096F4500438E01D2AC75AF192294
:105D2D007B017A0A7997900B2BE4F0A37406F07F30
:105D3D00007EE07D7F7C00125FC7759991E59830FC
:105D4D00E1FB5398FDE4FF74972FF582E4340AF5D7
:105D5D0083E0F599E59830E1FB5398FD0FEFB4061C
:105D6D00E6900A97E0F4601FE4FF74972FF582E444
:105D7D00340AF583E0FE74742FF582E4340AF5835A
:105D8D00EEF00FEFB406E37E007F067D007B017A17
:105D9D000A7997124A507B017A0A7997900B2BE476
:105DAD00F0A37402F07F0A7EE07D7F7C00125FC756
:105DBD00900A97E0FFF46014EFFE900A98E07C00E3
:0C5DCD002400FFEC3E90059BF0A3EFF0DB
:015DD90022A7
:101EE300EF01FFFFFFFF010003010005EF01FFFF0B
:101EF300FFFF01000402EF01FFFFFFFF01000305E5
:101F03000009EF01FFFFFFFF01000408EF01FFFFDE
:101F1300FFFF01000409EF01FFFFFFFF020082EF53
:101F230001FFFFFFFF080082EF01FFFFFFFF01003A
:101F33000606EF01FFFFFFFF01000607EF01FFFFAA
:101F4300FFFF0100070CEF01FFFFFFFF0100030D7F
:101F53000011EF01FFFFFFFF010003030007EF0183
:101F6300FFFFFFFF01000804EF01FFFFFFFF010078
:101F7300031D0021EF01FFFFFFFF0100050EEF012D
:101F8300FFFFFFFF0100030F0013EF01FFFFFFFF40
:101F93000100041F0000000000000000000000001A
:101FA300000000000000000000000000000000002E
:101FB300000000000000000000000000000000001E
:101FC300000000000000000000000000000000000E
:101FD30000000000000000000000000000000000FE
:011FE30000FD
:0D710600900810A3E0FFE4900810F0A3F043
:017113002259
:06718300ED7C00026D909E
:046D48007BFF7D0A46
:0B6D4C00900AF1EBF0A3EAF0A3E9F0DD
:106D5700E4A3F0A3F07F06EFC39D5024900AF1E06F
:106D6700FBA3E0FAA3E0F98F82758300124882FB48
:106D7700900AF5E02BF0900AF4E03400F00F80D78A
:086D8700900AF4E0FEA3E0FF16
:016D8F0022E1
:105C7F003E900AB4F0A3EFF0900AB4E0FCA3E0FD6D
:105C8F00EC900894F0A3EDF0900AF67401F0A37471
:105C9F0008F0A37414F0A3E4F0A37482F0A3E4F06B
:0E5CAF00A3740AF07A1F79197BFF7D097C002F
:105CBD00900AF1EBF0A3EAF0A3E9F0A3ECF0A3ED69
:105CCD00F07E027F587D007B017A037943124A50A2
:105CDD00900AF1E0FBA3E0FAA3E0F9A3A3E0FD1223
:105CED007183900AF9E0FEA3E0FF4E6010900AF672
:105CFD00E0FBA3E0FAA3E0F9AD0712718312710680
:105D0D00900AFBE0FEA3E0FF127051900343E0B454
:105D1D00EF0BA3E0B4010690034CE0FF227FFE22BF
:10702C00900AF6E4F0A3F0A3F0A3F0A3F0A3EEF023
:10703C00A3EFF07BFF7A1E79E37D0C7C00125CBD24
:01704C002221
:0B674100900AAEEFF0A3ECF0A3EDF027
:10674C0078B17C0A7D017BFF7A1F79977E007F03ED
:10675C00124843E4FC900AAEE0900AB1F07A1E793C
:10676C00EF126D48900AB1E02FFDEC3EA3F0AF059F
:10677C00A3EFF0900AF67401F0A3740AF0A374B1BD
:10678C00F0A3E4F0A37403F0900AAFE0FFA3E09051
:10679C000AFBCFF0A3EFF07BFF7A1E79EF7D0A7C2A
:0467AC0000125CBDBE
:0167B00022C6
:106FE600900AF6E4F0A3F0A3F0A3F0A3F0A37402D2
:106FF600F0A37458F07BFF7A1E79F97D0C7C0012A1
:037006005CBD224C
:0568EB00900AAEEFF081
:1068F00078AF7C0A7D017BFF7A1F799A7E007F0347
:10690000124843E4FC900AAEE0A3F07A1F79051226
:106910006D48900AAFE02FFDEC3EA3F0AF05A3EF6A
:10692000F0900AF67401F0A3740AF0A374AFF0A318
:10693000E4F0A37403F0A314F0A37458F07BFF7A7F
:0A6940001F79057D0A7C00125CBD82
:01694A00222A
:05688700900AC6EFF0CD
:10688C0078C77C0A7D017BFF7A1F799D7E007F0390
:10689C00124843E4FC900AC6E0A3F07BFF7A1F7910
:1068AC000F7D0A126D4C900AC7E02FFDEC3EA3F051
:1068BC00AF05A3EFF0900AF67401F0A3740AF0A3ED
:1068CC0074C7F0A3E4F0A37403F0A314F0A37458FA
:0E68DC00F07BFF7A1F790F7D0A7C00125CBDF5
:0168EA00228B
:0B634E00900AC6EFF0A3ECF0A3EDF006
:1063590078C97C0A7D017BFF7A1F79A07E007F05C1
:10636900124843900AC6E0900AC9F0900AC7E0FCB7
:10637900A3E0FDEC900ACAF0A3EDF07BFF7A1F7948
:106389002B7D0A126D4C900AC9E07C002FFFEC3E70
:10639900FEA3E02FFFEC3EFEA3E02FFDEC3EA3F0B1
:1063A900AF05A3EFF0900AF67401F0A3740AF0A305
:1063B90074C9F0A3E4F0A37405F0A37402F0A37404
:0F63C90058F07BFF7A1F792B7D0A7C00125CBD98
:0163D80022A2
:0A619800900AB6E0FCA3E0FD7F01D1
:0B61A200900AC6EFF0A3ECF0A3EDF0B4
:1061AD0078C97C0A7D017BFF7A1F79A57E007F056A
:1061BD00124843900AC6E0900AC9F0900AC7E0FC65
:1061CD00A3E0FDEC900ACAF0A3EDF07BFF7A1F79F6
:1061DD00357D0A126D4C900AC9E07C002FFFEC3E14
:1061ED00FEA3E02FFFEC3EFEA3E02FFDEC3EA3F05F
:1061FD00AF05A3EFF0900AF67401F0A3740AF0A3B3
:10620D0074C9F0A3E4F0A37405F0A3E4F0A37464DF
:0E621D00F07BFF7A1F79357D0A7C00125CBD94
:01622B002250
:0E606700900AAEEEF0A3EFF0A3ECF0A3EDF084
:1060750078B27C0A7D017BFF7A1F79AA7E007F06B4
:10608500124843900AAEE0FCA3E0FDEC900AB2F0A2
:10609500A3EDF0900AB0E0FCA3E0FDEC900AB4F0AB
:1060A500A3EDF07BFF7A1F793F7D0A126D4C900AB4
:1060B500B2E07C002FFFEC3EFEA3E02FFFEC3EFE9E
:1060C500A3E02FFFEC3EFEA3E02FFDEC3EA3F0AFD7
:1060D50005A3EFF0900AF67401F0A3740AF0A37417
:1060E500B2F0A3E4F0A37406F0A3E4F0A37464F0A3
:0D60F5007BFF7A1F793F7D0A7C00125CBDA5
:01610200227A
:10700900900AF6E4F0A3F0A3F0A3F0A3F0A37402AE
:10701900F0A37458F07BFF7A1F79497D0C7C00122C
:037029005CBD2229
:0B694B00900AC6EBF0A3EAF0A3E9F00D
:10695600E4A3F0F9900AF6C9F0A3F0A3E9F0E4A3E2
:10696600F0A3F0A37402F0A37458F07BFF7A1F79AA
:10697600557D0C7C00125CBD900AC9EFF0701F902B
:10698600034DE0FEA3E07C002400FFEC3EF9900AF4
:10699600C6E0FBA3E0FAA3E0C98FF0124954900ABF
:0369A600C9E0FF46
:0169A90022CB
:105A1E00900AAEEFF0A3ECF0A3EDF0A3EAF0A3EB47
:015A2E00F087
:105A2F00E478B67C0A7D017BFF7A1F79B0FE7F0791
:105A3F00124843900AAEE0900AB6F0900AAFE0FC2D
:105A4F00A3E0FDEC900AB7F0A3EDF0900AB1E0FCF3
:105A5F00A3E0FDEC900AB9F0A3EDF07BFF7A1F797C
:105A6F00617D0A126D4C900AB6E07C002FFFEC3E70
:105A7F00FEA3E02FFFEC3EFEA3E02FFFEC3EFEA3C4
:105A8F00E02FFFEC3EFEA3E02FFDEC3EA3F0AF05B1
:105A9F00A3EFF0900AF67401F0A3740AF0A374B6A2
:105AAF00F0A3E4F0A37407F0A3E4F0A374C8F07BB1
:105ABF00FF7A1F79617D0A7C00125CBDE4FE744D94
:105ACF002EF582E43403F583E0FD900AB3E0FBA3E7
:105ADF00E0FAA3E0F98E82758300ED1248F40EEE22
:035AEF00B402DB23
:015AF2002291
:0B69AA00900C67EBF0A3EAF0A3E9F00B
:1069B500E4A3F0F9900AF6C9F0A3F0A3E9F0E4A383
:1069C500F0A3F0A37402F0A37458F07BFF7A1F794B
:1069D5006B7D0C7C00125CBD900C6AEFF0701F9013
:1069E500034DE0FEA3E07C002400FFEC3EF9900C93
:1069F50067E0FBA3E0FAA3E0C98FF0124954900CBD
:036A05006AE0FF45
:016A0800226B
:0864E500900C61EFF0A3EDF053
:1064ED0078637C0C7D017BFF7A1F79B77E007F047A
:1064FD00124843E4FC900C61E0900C63F0900C6248
:10650D00E0900C64F07BFF7A1F79777D0A126D4C59
:10651D00900C63E02FFFEC3EFEA3E02FFDEC3E90D0
:10652D000C66F0AF05A3EFF0900AF67401F0A374BA
:10653D000CF0A37463F0A3E4F0A37404F0A374024D
:10654D00F0A37458F07BFF7A1F79777D0A7C0012D7
:02655D005CBD23
:01655F002219
:0B681D00900C6BEBF0A3EAF0A3E9F095
:10682800E4FFA3F0F9900AF6C9F0A3F0A3E9F0E4B5
:10683800A3F0A3F0A37402F0A37458F07BFF7A1FAF
:1068480079817D0C7C00125CBDEF7032900C6EF08B
:10685800900C6EE0FE244DF582E43403F583E0FDF0
:10686800900C6BE0FBA3E0FAA3E0F98E827583003D
:0E687800ED1248F4900C6EE004F0E0B410D283
:0168860022EF
:0E5E8000900AE9EFF0A3EBF0A3EAF0A3E9F03B
:105E8E00E4A3F078EE7C0A7D017BFF7A1F79BBFEDE
:105E9E007F03124843E4FC900AE9E0900AEEF07B9F
:105EAE00FF7A1F798D7D0A126D4C900AEEE02FFD60
:105EBE00EC3EA3F0AF05A3EFF0900AF67401F0A349
:105ECE00740AF0A374EEF0A3E4F0A37403F0A31429
:105EDE00F0A37458F07BFF7A1F798D7D0A7C001237
:105EEE005CBDEF7032900AEDF0900AEDE0FE244DAD
:105EFE00F582E43403F583E0FD900AEAE0FBA3E0CB
:105F0E00FAA3E0F98E82758300ED1248F4900AED43
:075F1E00E004F0E0B420D222
:015F25002259
:105F260078C67C0A7D017BFF7A1F79BE7E007F20C2
:105F3600124843E4900AE6F0A3F0A3F0900AE6F0D4
:105F4600900AE6E0FFC3940350737B017A0A79C690
:105F5600125E80EF705F900AE7F0E4900AE8F09036
:105F66000AE8E0FFC394085042900AE7E0FE24C620
:105F7600F582E4340AF583E0FDA807088002C3131E
:105F8600D8FC20E01EEE75F008A4FB900AE6E0FEC1
:105F9600E42BFFEE35F0FE900AE8E07C002FFFECE4
:105FA6003EFE22900AE8E004F080B4900AE7E0049E
:105FB600F0E0B420A5900AE6E004F08083E4FEFF5A
:015FC60022B8
:0B542000900AAEEBF0A3EAF0A3E9F065
:10542B00E4FFFEEF64154E7043900AB1F0A3F090C9
:10543B000AB1E0FCA3E0FDC39480EC9400502D7402
:10544B00432FF58274033EF583E0FB74142DF58234
:10545B0074083CF583EBF0900AB2E004F070069010
:10546B000AB1E004F00FBF00010E80C3EF64A04E41
:10547B007043900AB1F0A37480F0900AB1E0FCA3E2
:10548B00E0FDC3EC9401502D74432FF58274033E61
:10549B00F583E0FB74142DF58274083CF583EBF077
:1054AB00900AB2E004F07006900AB1E004F00FBF6E
:1054BB0000010E80C5BE0149BF2B46900AB1740195
:1054CB00F0A3E4F0900AB1E0FCA3E0FDC39480EC00
:1054DB009401502D74432FF58274033EF583E0FB4A
:1054EB0074142DF58274083CF583EBF0900AB2E04E
:1054FB0004F07006900AB1E004F00FBF00010E80BB
:10550B00C3BE0148BFB645900AB17401F0A37480C5
:10551B00F0900AB1E0FCA3E0FDC3EC9402502D74B3
:10552B00432FF58274033EF583E0FB74142DF58253
:10553B0074083CF583EBF0900AB2E004F07006902F
:10554B000AB1E004F00FBF00010E80C50FBF0001D0
:10555B000EC3EF942CEE9402500302542E900ABA11
:10556B007401F0A37408F0A37414F0A37402F0A3F5
:10557B00E4F0C208900AAEE0FBA3E0FAA3E0F91254
:10558B0051F8AC06AD077B017A0579A412610D7E4B
:10559B00027F587D007B017A087914124A507E02F3
:0D55AB007F587D007B017A0579A4024A50EB
:086CFD007B017A0879147D8007
:0B6D0500900AC6EBF0A3EAF0A3E9F04F
:106D1000E4FFA3F0A3F0EFC39D5024900AC6E0FB6C
:106D2000A3E0FAA3E0F98F82758300124882FB90FA
:106D30000ACAE02BF0900AC9E03400F00F80D79027
:076D40000AC9E0FEA3E0FF19
:016D47002229
:0B1B7600900AAEEBF0A3EAF0A3E9F048
:101B8100E4900AB4F0A3F0A3F0A3F078BB7C0A7D43
:101B9100017BFF7A1F79DEFE7F0212484378BD7C0C
:101BA1000A7D017BFF7A1F79E07E007F04124843A2
:101BB100E4900AC1F0A3124A1F000000007F021244
:101BC10068877F0A7E00127051E4FFFE900AB1E03F
:101BD100FBA3E475F00112493EA9F0FA124869FD30
:101BE10074BD2FF582740A3EF583EDF00FBF00013D
:101BF1000EEF64044E70D5E4FEFF900AAEE0FBA345
:101C0100E475F00112493EA9F0FA124869FD741415
:101C11002FF58274083EF583EDF00FBF00010EEF42
:101C210064804E70D5126CFDC006C0077BFF7A1F21
:101C310079197D09126D4CD0E02FFFD0E0125C7F45
:101C4100E4FEFF900AAEE0FBA3E475F00112493E09
:101C5100A9F0FA124869FD74142FF58274083EF553
:101C610083EDF00FBF00010EEF64804E70D5126C52
:101C7100FDC006C0077BFF7A1F79197D09126D4CE3
:101C8100D0E02FFFD0E0125C7FE4FEFF900AAEE0CF
:101C9100FBA3E475F00112493EA9F0FA124869FD6F
:101CA10074142FF58274083EF583EDF00FBF000127
:101CB1000EEF64804E70D5126CFDC006C0077BFF2D
:101CC1007A1F79197D09126D4CD0E02FFFD0E012F7
:101CD1005C7FE4FEFF900AAEE0FBA3E475F0011225
:101CE100493EA9F0FA124869FD74142FF58274086F
:101CF1003EF583EDF00FBF00010EEF64804E70D50D
:101D0100126CFDC006C0077BFF7A1F79227D091284
:101D11006D4CD0E02FFFD0E03E900AB4F0A3EFF07D
:101D2100900AB4E0FCA3E0FDEC900894F0A3EDF080
:101D3100900AF67401F0A37408F0A37414F0A3E4FC
:101D4100F0A37482F0A3E4F0A3740AF07A1F79225D
:101D5100125CB77E027F587D007B017A08791412EC
:101D61004A507B017A0A79BD7D031233DBEF2406E9
:101D7100FFE43EFEE43DFDE43CFC7B017A0A79BBD5
:101D8100900B2BE4F0A37402F0125FC7900ABBE042
:101D9100FFB4FF0EA3E0B4FF09E4900AB6F0A3F08C
:101DA1008014EFFE900ABCE07C002400FFEC3E9022
:101DB1000AB6F0A3EFF0126198BF0C067F01C007CD
:101DC10080047F00C007126198EF70047E018002D9
:101DD1007E00D0E04E7003021EE1900AB8E0FBA342
:101DE100E0FAA3E0F912694BEF70197B017A0A79E5
:101DF100BD7D0312413D7B017A0A79BD7D0312331A
:101E0100DBEF8059125F26900AB6EEF0FCA3EFF0EB
:101E1100FD7F0212634E900AB6E0FCA3E0FDEC9058
:101E21000ABBF0A3EDF07B017A0A79BD7D03123381
:101E3100DB900AC2124A13E4FFFEFDFC900AC2E0E5
:101E4100F8A3E0F9A3E0FAA3E0FBC31249CF602DA8
:101E5100900AC2E0FCA3E0FDA3E0FEA3E02406FF9C
:101E6100E43EFEE43DFDE43CFC7B017A0A79BB9053
:101E71000B06E4F0A37402F0126A09D322E4FFFE18
:101E8100FDFC900AC2E0F8A3E0F9A3E0FAA3E0FBAD
:101E9100C31249CF70487B017A0A79BD7D03124193
:101EA1003D7B017A0A79BD7D031233DBEF2406FF06
:101EB100E43EFEE43DFDE43CFCC004C005C006C0B8
:101EC100077B017A0A79BB900B0F124A1F000000B1
:101ED10002D007D006D005D004125DDAD322D32276
:011EE100D32D
:011EE20022DD
:104F87002016061455AAAA550001000200060003C0
:104F970080017001300100194001500100290039DA
:104FA7005002400230024003300388883103320345
:104FB700500360016002F801FFFFFEFEFF01FF02E0
:104FC700FF03FF04AAAAAA96690003200122AAAA3E
:104FD700AA96690003200221AAAAAA9669000330AB
:104FE7000132000000000001FFFF00020000000383
:104FF700FFFF000400000005FFFF00060000000798
:10500700FFFF000800000009FFFF000A0000000B77
:10501700FFFF000C0000000DFFFF000E0000000F57
:10502700FFFF001000000011FFFF00120000001337
:10503700FFFF001400000015FFFF00160000001618
:10504700FFFF001700000017FFFF001800000018FF
:10505700FFFF001900000019FFFF001A0000001AE7
:10506700FFFF001B0000001BFFFF001C0000001CCF
:10507700FFFF001D0000001DFFFF001E0000001EB7
:10508700FFFF001F0000001FFFFF0020000000209F
:10509700FFFF002100000021FFFF00220000002287
:1050A700FFFF002300000023FFFF0024000000246F
:1050B700FFFF002500000025FFFF00260000002657
:1050C700FFFF002700000027FFFF0028000000283F
:1050D700FFFF002900000029FFFF002A0000002A27
:1050E700FFFF002B0000002BFFFF002C0000002C0F
:1050F700FFFF002D0000002DFFFF002E0000002EF7
:10510700FFFF002F0000002FFFFF003000000030DE
:10511700FFFF003100000031FFFF003200000032C6
:10512700FFFF003300000033FFFF003400000034AE
:10513700FFFF003500000035FFFFDBCAFE63781272
:1051470043673523980000000000000000000000BE
:105157000000000000000000000000000000000048
:105167000000000000000000000000000000000038
:10517700000000FFFFFFFFFFFF000000000000002E
:105187000000000000000000000000000000000018
:105197000000000000000000000000000000000008
:1051A70000000000000000000000000000000000F8
:1051B70000000000000000000000000000000000E8
:1051C70000000000000000000000000000000000D8
:0751D70000000000000000D1
:10108C0042059B000A4208100000570A7A00000033
:10109C000000000000000000000000000000000044
:1010AC00000000004C07FC000000000000000000E5
:1010BC00000000410A730042080C00005E0325008A
:1010CC000000000000000000000000000000000014
:1010DC0000000000000000000000000000420A9325
:1010EC0000006258034300000000000000000000F4
:1010FC0000000000000000000000000000000000E4
:10110C0000000000000000000000000000000000D3
:10111C0000000000000000000000000000000000C3
:10112C0000000000000000000000000000000000B3
:10133C000000000000000000000000000000420A55
:10134C0091000042081200004208080000460A748E
:10135C0003710001000141080F00625805A4000050
:10136C000000000000000000000000000000000071
:10137C000000000000000000000000000000000061
:10138C000000000000000000000000000000000051
:10139C000000000000000000000000000000000041
:1015BC000000000000006258081400000000000049
:1015CC00000000000000000000000000000000000F
:1015DC0000000000000000000000000000000000FF
:1015EC0000000000000000000000000000000000EF
:1015FC0000000000000000000000000000000000DF
:10181C00000042025A000062580002000000000062
:10182C0000000000000000000000000000000000AC
:10183C00000000000000000000000000000000009C
:10184C00000000000000000000000000000000008C
:10185C00000000000000000000000000000000007C
:101A7C0000000060C8025D000000000000000000D3
:101A8C00000000000000000000000000000000004A
:101A9C00000000000000000000000000000000003A
:101AAC00000000000000000000000000000000002A
:101ABC00000000000000000000000000000000001A
:101ACC00000000000000000000000000000000000A
:101ADC0000000000000000000000000000000000FA
:101AEC0000000000000000000000000000000000EA
:101AFC0000000000000000000000000000000000DA
:101B0C0000000000000000000000000000000000C9
:101B1C0000000000000000000000000000000000B9
:101B2C0000000000000000000000000000000000A9
:101B3C000000000000000000000000000000004257
:101B4C000000000041025C0041080E0042080A003F
:101B5C000047059D1E34161B030410470A6C000039
:091B6C000000000000C100C101ED
:1063D900E4900A95F0A3F0126BC2126F1512200E09
:1063E900127175125D2DD2AF7FF47E01127051903A
:1063F9000ABA7401F0A3740AF0A37474F0A3E4F068
:10640900A37406F0D2087BFF7A4F79C31251F812B0
:10641900610390025AE07002A3E06003122096C360
:1064290090080DE0941590080CE094004003124A7E
:106439007CC3900A94E09401900A93E0940040038D
:106449001255B8300509C2B712704DD2B7C205123C
:076459004D30125BC080BB57
:03200B0002594334
:10594300C0E0C0F0C083C082C0D075D00830063E2E
:10595300C2C4C2C3900A92E004F07006900A91E0B8
:1059630004F090059BE0FEA3E0FFD3900A92E09F32
:10597300900A91E09E4017C206E4F0A3F0D2C4D28D
:10598300C3127161EF640160F87F0F126B19900805
:105993000EE0703090025CE0702A90080BE004F097
:1059A300700690080AE004F0D390080BE09432905C
:1059B300080AE09400400D90080E7401F090080A64
:1059C300E4F0A3F0200523900813E004F0700690A0
:1059D3000812E004F0D3900813E09430900812E02A
:1059E30094754006D205E4F0A3F030022390080931
:1059F300E004F07006900808E004F0D3900809E092
:105A0300942C900808E094014006E4F0A3F0C2024D
:0B5A1300D0D0D082D083D0F0D0E032A1
:03202300026C62EA
:0B6C6200C0E0C083C082C0D075D00825
:106C6D00309837AF99900810E0FCA3E0FDC394581D
:106C7D00EC9402501C74432DF58274033CF583EFA4
:106C8D00F0900811E004F0700F900810E004F0800F
:0A6C9D0007900810E4F0A3F0C2987D
:096CA700D0D0D082D083D0E032BD
:03204300026560D3
:10656000C0E0C0F0C083C082C0D075D008E59A30CA
:10657000E05D539AFE900A73E59BF020030DE0B4B2
:10658000650990080CE4F0A3F0D203300341C390F6
:10659000080DE0941690080CE09400501D900A73CA
:1065A000E0FF90080CE475F00112493EFC747A2576
:1065B000F0F582740A3CF583EFF0D390080DE09477
:1065C0001690080CE094004006E4F0A3F0C203D05B
:0A65D000D0D082D083D0F0D0E032AA
:03208B00026A6581
:0D6A6500C0E0C0F0C083C082C0D075D00872
:106A7200E4FFE5AC30E03CAFAD53ACFEC3900A940A
:106A8200E0941E900A93E094005015E475F0011210
:106A9200493EFC742525F0F58274033CF583EFF042
:106AA200D3900A94E0941E900A93E094004004E488
:036AB200F0A3F05E
:0B6AB500D0D0D082D083D0F0D0E032EF
:03209300026AC01E
:0D6AC000C0E0C0F0C083C082C0D075D00817
:106ACD00E58430E03CAF855384FEC3900001E09433
:106ADD00C8900000E094005015E475F00112493E95
:106AED00FC745D25F0F58274023CF583EFF0D390D4
:106AFD000001E094C8900000E094004004E4F0A38D
:016B0D00F097
:0B6B0E00D0D0D082D083D0F0D0E03295
:03200300026B6FFE
:106B6F00C0E0C0F0C083C082C0D075D000C000C0EC
:106B7F0001C002C003C004C005C006C007127114D3
:106B8F0090025AE475F00112493EFC740225F0F5AB
:106B9F008274003CF583EFF0D007D006D005D00407
:106BAF00D003D002D001D000D0D0D082D083D0F08B
:036BBF00D0E032F1
:10209600E4900A97F0A3F0A3F0A3F0A3F0A3F0A3B3
:1020A600F0A3F0A3F0A3F0A3F0A3F0A3124A1F003D
:1020B600000000E4900AA7F0A3F0A3F078AA7C0A37
:1020C6007D017BFF7A51794CFE7F0212484378AC42
:1020D6007C0A7D017BFF7A51794E7E007F02124891
:1020E600437F647E00127051904F8BE493FF900003
:1020F60002E06F6003022B28904F8C93FF90000341
:10210600E06F6003022B28A3E0FEA3E07C0024001E
:10211600FFEC3EFE900A9BF0A3EFF0240DFFE43E99
:10212600900AA1F0A3EFF0E4900A97F0A3F0900ACA
:102136009CE0240DFF900A9BE03400FE900A97E095
:10214600FCA3E0FDC39FEC9E502274022DF5827421
:10215600003CF583E0FF900AA8E02FF0900A98E093
:1021660004F070CA900A97E004F080C2E4900A97DF
:10217600F0A3F0A3F0A3F0900A99E0FEA3E0FFC35A
:102186009406EE940050047D0180027D00ED6044CB
:10219600900A97E0FCA3E02406F58274003CF583E0
:1021A600E0FD74742FF582740A3EF583E0B50506EA
:1021B600900AA7E004F0900A98E004F07006900AEE
:1021C60097E004F0900A9AE004F070AB900A99E068
:1021D60004F080A3900AA1E0FEA3E02402F5827435
:1021E600003EF583E0FF900AA8E06F6003022B280B
:1021F600900AA7E064066003022B2890000CE0908A
:10220600080FF090000DE0FF904F95E493B507227C
:1022160090000EE0FF904F96E493B507152002124A
:10222600D2067BFF7A4F79957D011265E27F011216
:102236006C1B90000DE0FF904FBDE493B5071E9018
:10224600000EE0FF904FBEE493B507117B017A00C4
:10225600790290025AE0FCA3E0FD12610D90000D98
:10226600E0FF904F8FE493B5071E90000EE0FF90BD
:102276004F90E493B507117B017A00790290025AD8
:10228600E0FCA3E0FD12610D90000DE0FF904F9180
:10229600E4936F701F90000EE0FF904F92E4936FEF
:1022A6007012041251DE12610312704D7F01126C1E
:1022B6001B75C72090000DE0FF904FC1E493B50752
:1022C6000F90000EE0FE904FC2E493B50602D206D0
:1022D600904FB9E4936F703090000EE0FF904FBAC4
:1022E600E493B50723900ABA74FFF0A3744FF0A3E2
:1022F6007487F0A3E4F0A37404F0C2087BFF7A4F5E
:1023060079B91251F812610390000DE0FF904FBBAE
:10231600E493B5071E90000EE0FF904FBCE493B522
:1023260007117B017A00790290025AE0FCA3E0FDD6
:1023360012610D90000DE0FF904FC3E4936F70574C
:1023460090000EE0FF904FC4E4936F704A7B017AD1
:1023560000790F900B06F0A37406F07F007EE07DF7
:102366007F7C00126A09900ABA7401F0A37400F027
:10237600A3740FF0A3E4F0A37406F0D2087BFF7AEF
:102386004F79C31251F812610312704D7401125144
:10239600DE12610375C72090000DE0FF904F93E4B5
:1023A600936F600302249290000EE0FF904F94E436
:1023B600936F600302249290000FE0600302247A78
:1023C600900015E0FF900013E06F7077EF25E0FEB8
:1023D600E42400FFEE347EFE7B017A0079187D004E
:1023E6007C02125AF3EF70030224927F007E7E7DF8
:1023F600007C00126E5B900ABF745AF07F007E7EEE
:102406007D007C00126DD8900ABF74A5F07F017E16
:102416007E7D007C00126DD8900013E0900ABFF01C
:102426007F027E7E7D007C00126DD87BFF7A4F791D
:10243600937D011265E27F01126C1B12704D75C708
:10244600208049900015E025E0FEE42400FFEE34EC
:102456007EFE7B017A0079187D007C02125AF3EF2A
:10246600602A7BFF7A4F79937D011265E27F031222
:102476006C1B801890000FE0B401117B017A007983
:102486000290025AE0FCA3E0FD12610D90000DE0FF
:10249600FF904FAFE4936F600302252690000EE095
:1024A600FF904FB0E4936F7077904FE91249F38035
:1024B6004590503D1249F3900AA3E0F8A3E0F9A332
:1024C600E0FAA3E0FBC31249CF5033900AA3E0FC25
:1024D600A3E0FDA3E0FEA3E0FF126E1A900AA3E0BC
:1024E600FCA3E0FDA3E0FEA3E02400FFE43EFEED36
:1024F6003401FDE43CFC900AA3124A1380B3900A0F
:10250600BA7401F0A3740AF0A374A8F0A3E4F0A3CC
:1025160004F0D2087BFF7A4F79AF1251F8126103AB
:1025260090000DE0FF904FADE4936F60030225BA73
:1025360090000EE0FF904FAEE4936F70779050419D
:102546001249F380459050BD1249F3900AA3E0F872
:10255600A3E0F9A3E0FAA3E0FBC31249CF503390FE
:102566000AA3E0FCA3E0FDA3E0FEA3E0FF126E1ABF
:10257600900AA3E0FCA3E0FDA3E0FEA3E02400FF95
:10258600E43EFEED3401FDE43CFC900AA3124A133E
:1025960080B3900ABA7401F0A3740AF0A374A8F089
:1025A600A3E4F0A304F0D2087BFF7A4F79AD125171
:1025B600F812610390000DE0FF904FB1E4936F6055
:1025C6000302264E90000EE0FF904FB2E4936F7028
:1025D600779050C11249F3804590513D1249F390CE
:1025E6000AA3E0F8A3E0F9A3E0FAA3E0FBC31249CB
:1025F600CF5033900AA3E0FCA3E0FDA3E0FEA3E0E6
:10260600FF126E1A900AA3E0FCA3E0FDA3E0FEA36E
:10261600E02400FFE43EFEED3401FDE43CFC900ABC
:10262600A3124A1380B3900ABA7401F0A3740AF095
:10263600A374A8F0A3E4F0A304F0D2087BFF7A4FBA
:1026460079B11251F812610390000DE0FF904F9B93
:10265600E4936F704490000EE0FF904F9CE4936FFC
:10266600703790000FE070197D011241377BFF7AB9
:102676004F799BBF01047D018002E4FD1265E28073
:102686001890000FE0B401117B017A0079029002E4
:102696005AE0FCA3E0FD12610D90000DE0FF904FA3
:1026A600ABE4936F704490000EE0FF904FACE49360
:1026B6006F703790000FE070197D01123AF97BFFB9
:1026C6007A4F79ABBF01047D018002E4FD1265E219
:1026D600801890000FE0B401117B017A0079029016
:1026E600025AE0FCA3E0FD12610D90000DE0FF90A0
:1026F6004F9FE4936F704390000EE0FF904FA0E46D
:10270600936F703690000FE07018FD1241377BFF13
:102716007A4F799FBF01047D018002E4FD1265E2D4
:10272600801890000FE0B401117B017A00790290C5
:10273600025AE0FCA3E0FD12610D90000DE0FF904F
:102746004FA9E4936F704390000EE0FF904FAAE408
:10275600936F703690000FE07018FD123AF97BFF08
:102766007A4F79A9BF01047D018002E4FD1265E27A
:10277600801890000FE0B401117B017A0079029075
:10278600025AE0FCA3E0FD12610D90000DE0FF90FF
:102796004FA1E4936F703490000EE0FF904FA2E4D7
:1027A600936F70277B01900AB104F0A37400F0A325
:1027B6007410F07A007914121B767BFF7A4F79A198
:1027C60050047D018002E4FD1265E290000DE0FFF9
:1027D600904FA7E4936F706990000EE0FF904FA8AA
:1027E600E4936F705C7A00790F1233D7EF2406FFFB
:1027F600E43EFEE43DFDE43CFC7B017A0A79AC90C4
:102806000B2BE4F0A37402F0125FC7900AACE0FE53
:10281600A3E07C002400FFEC3EFE900A9DF0A3EFAF
:10282600F07D01126067EF700D7B017A00790F7DF4
:1028360003123AFF80007BFF7A4F79A77D0112656C
:10284600E290000DE0FF904FB7E4936F600302281B
:10285600D490000EE0FF904FB8E4936F7070127042
:1028660009EF705F9050C11249F3804590513D12B7
:1028760049F3900AA3E0F8A3E0F9A3E0FAA3E0FB8A
:10288600C31249CF5033900AA3E0FCA3E0FDA3E0B6
:10289600FEA3E0FF126E1A900AA3E0FCA3E0FDA3DC
:1028A600E0FEA3E02400FFE43EFEED3401FDE43C3F
:1028B600FC900AA3124A1380B37BFF7A4F79B77D47
:1028C6000180087BFF7A4F79B7E4FD1265E290003C
:1028D6000DE0FF904FB3E4936F60030229B69000BA
:1028E6000EE0FF904FB4E4936F60030229B67F6455
:1028F600FE127051E4900AA9F0127161EF64016052
:10290600F87F0B126B197F587E0212702CEF600451
:102916007F0180027F00900AA9E0C3940A50047EDA
:102926000180027E00EE5F6007C200126C1380D643
:10293600900AA9E0C3940A504E7D587C027F01128A
:102946006741EF701ED2007BFF7A4F79B37D01128B
:1029560065E27F02126C1B127161EF640160F87F01
:102966000D804AC2007A4F79B31265DE7F03126C7E
:102976001B7F03126C1B7F03126C1B127161EF64C9
:102986000160F87F0A8026C2007BFF7A4F79B3E4A4
:10299600FD1265E27F03126C1B7F03126C1B7F0323
:1029A600126C1B127161EF640160F87F08126B19DB
:1029B60090000DE0FF904FB5E4936F6003022B2863
:1029C60090000EE0FF904FB6E4936F6003022B2851
:1029D6007F64FE127051E4900AA9F0127161EF64EF
:1029E6000160F87F0C126B197F587E0212702CEF73
:1029F60060047F0180027F00900AA9E0C3940A5018
:102A0600047E0180027E00EE5F6007C201126C1335
:102A160080D6900AA9E0C3940A4003022B077F02DE
:102A2600126C1BD2017D587C027F02126741EF6057
:102A360003022AE9900AB304F0A3740AF0A374AC63
:102A4600F07BE87A03E4FDFC7F02125A1EEF600475
:102A56007F0180027F003001047E0180027E00300B
:102A660000047D0180027D00ED5E5F6058C200C2F9
:102A760001126FE6EF7030125F26AC06AD077F02DB
:102A860012634EEF6003022B287F011268EB7BFF77
:102A96007A4F79B512542012704D127161EF6401AC
:102AA60060F87F0D022B251265DA7F03126C1B7FFF
:102AB60003126C1B7F03126C1B127161EF640160C1
:102AC600F87F08805A1265DA7F03126C1B7F0312A7
:102AD6006C1B7F03126C1B127161EF640160F87F3F
:102AE60008803C1265DA7F03126C1B7F03126C1B95
:102AF6007F03126C1B127161EF640160F87F0A801C
:102B06001EC2011265DA7F03126C1B7F03126C1B57
:102B16007F03126C1B127161EF640160F87F08126B
:102B26006B197E027F587D007B017A007902124A7A
:082B360050E490025AF0A3F0F4
:012B3E002274
:0865DA007A4F79B57BFFE4FD67
:0E65E200900AAEEBF0A3EAF0A3E9F0A3EDF00F
:1065F000E4A3F0A3F0A37431F0A314F0BD010F9055
:106600000ABA7401F0A3740AF0A374B48012900A59
:10661000B1E07030900ABA04F0A3740AF0A374B524
:10662000F0A3E4F0A304F0C208900AAEE0FBA3E0FC
:10663000FAA3E0F91251F8900AB2EEF0FCA3EFF0E1
:10664000FD1261077E027F587D007B017A0579A4E7
:03665000024A50AB
:086C1300900AA9E004F07F01E2
:056C1B00900AB6EFF045
:106C2000E4FE7F64127051900ABA7401F0A3740AF2
:106C3000F0A374B6F0A3E4F0A304F0D2087BFF7ACB
:106C40004F79BF1251F87B017A0579A4AD07AC06E4
:106C500012610D7E027F587D007B017A0579A402C6
:026C60004A5098
:064137007B017A00791003
:0E413D00900AC6EBF0A3EAF0A3E9F0A3EDF0C0
:10414B00E4A3F0A3F0A3F0A3F078CE7C0A7D017B6F
:10415B00FF7A517950FE7F02124843E4900AD0F067
:10416B0078D17C0A7D017BFF7A517952FE7F141244
:10417B00484378E57C0A7D017BFF7A5179667E00A6
:10418B007F0A12484378EF7C0A7D017BFF7A5179D5
:10419B00707E007F0A12484378F97C0A7D017BFF11
:1041AB007A51797A7E007F06124843900AC9E064FF
:1041BB00016003024370A3F0A3F0900ACAE0FEA3D0
:1041CB00E0FFC39410EE94005030900AC6E0FBA3BE
:1041DB00E475F00112493EA9F0FA124869FD74D159
:1041EB002FF582740A3EF583EDF0900ACBE004F0D4
:1041FB0070C8900ACAE004F080C0900B027401F002
:10420B00A3740AF0A374F9F0A3E4F0A37410F0A361
:10421B00E4F0A37404F07B017A0A79D112624A901C
:10422B000AD9E0900AD0F07B017A0A79D17D01128C
:10423B0033DBE4FBFAF9F8C31249CF600302436A9C
:10424B00900AD0E0540FF075F008A424E9F582E44D
:10425B00344FF5831249F3EF2401FFE43EFEE43DB6
:10426B00FDE43CFC12706D7E00C006C007900AD0C6
:10427B00E0540FF075F008A424E9F582E4344FF50F
:10428B00831249F312706DEFFCD0E02400FED0E0F6
:10429B003C900ACCF0A3CEF07599A5E59830E1FBE4
:1042AB005398FD900ACCE0B4FF0CA3E0B4FF07E4F5
:1042BB00900ACCF0A3F0900ACCE0FEA3E0FF7C00C8
:1042CB007D14124916E4FD900AD0E0540FF075F0FE
:1042DB0008A424E9F582E4344FF583124A03EB2F4B
:1042EB00FFEA3EFEED39FDEC38FCEF243CFFE43EEB
:1042FB00FEE43DFDE43CFCC004C005C006C0077BEA
:10430B00017A0A79D1900B0F124A1F00000014D0CA
:10431B0007D006D005D004125DDA900ACDE004F088
:10432B007006900ACCE004F0900ACCE0FCA3E0FD10
:10433B00ECA3F0EDA3F0A3E0540FF075F008A42468
:10434B00E9F582E4344FF5831249F37B017A0A795C
:10435B00CE900B06E4F0A37402F0126A0980037F7F
:10436B0001227F0122900AC9E060030245C2A3F03B
:10437B00A3F0900ACAE0FEA3E0FFC39406EE9400FC
:10438B005030900AC6E0FBA3E475F00112493EA938
:10439B00F0FA124869FD74E52FF582740A3EF58335
:1043AB00EDF0900ACBE004F070C8900ACAE004F07C
:1043BB0080C0900B027401F0A3740AF0A374F9F09F
:1043CB00A3E4F0A37406F0A3E4F0A37404F07B0160
:1043DB007A0A79E512624A7B017A0A79E5E4FD12E1
:1043EB0033DBE4FBFAF9F8C31249CF60030245BF94
:1043FB00900AEAE0900AD0F0540FF075F008A4246C
:10440B0041F582E43450F5831249F3EF2401FFE4C4
:10441B003EFEE43DFDE43CFC12706D7E00C006C028
:10442B0007900AD0E0540FF075F008A42441F582F0
:10443B00E43450F5831249F312706DEFFCD0E02495
:10444B0000FFD0E03CFE900ACCF0A3EFF0BEFF0AD9
:10445B00BFFF07E4900ACCF0A3F0E4900ACAF0A3E4
:10446B00F0900ACAE0FEA3E0FFC3940AEE9400505A
:10447B002674E52FF582740A3EF583E0F599E598ED
:10448B0030E1FB5398FD00900ACBE004F070D29022
:10449B000ACAE004F080CA900ACCE0FEA3E0FF7CDD
:1044AB00007D0A124916E4FD900AD0E0540FF07516
:1044BB00F008A42441F582E43450F583124A03EB4F
:1044CB002FFFEA3EFEED39FDEC38FCEF241EFFE436
:1044DB003EFEE43DFDE43CFCC004C005C006C00745
:1044EB007B017A0A79E5900B0F124A1F0000000A34
:1044FB00D007D006D005D004125DDA900ACDE004C7
:10450B00F07006900ACCE004F0900ACCE0FCA3E03B
:10451B00FDECA3F0EDA3F0A3E0540FF075F008A4AD
:10452B002441F582E43450F5831249F37B017A0A76
:10453B0079CE900B06E4F0A37402F0126A09900A8C
:10454B00D0E0540FF075F008A42441F582E4345008
:10455B00F5831249F37B017A0579A4900B2B740236
:10456B00F0A37458F0125FC77599A2E59830E1FB80
:10457B005398FDE4900ACAF0A3F0900ACAE0FEA398
:10458B00E0FFC39458EE9402502774A42FF5827465
:10459B00053EF583E0F599E59830E1FB5398FD0076
:1045AB0000900ACBE004F070D1900ACAE004F080CE
:1045BB00C97F01227F0122900AC9E06403600302D4
:1045CB004770A3F0A3F0900ACAE0FEA3E0FFC394E8
:1045DB0004EE94005030900AC6E0FBA3E475F001A2
:1045EB0012493EA9F0FA124869FD74EF2FF5827457
:1045FB000A3EF583EDF0900ACBE004F070C8900A08
:10460B00CAE004F080C07A0A79EF1233D7E4FBFAE0
:10461B00F9F8C31249CF600302476D0B900B0204EC
:10462B00F0A3740AF0A374F9F0A3E4F0A37404F0FC
:10463B00A3E4F0A37406F07A0A79EF12624A900AA7
:10464B00F0E0FF900AEFE02FFF900AF1E02FFFA3BD
:10465B00E02F900AD0F0540FF075F008A424C1F5A8
:10466B0082E43450F5831249F3EF2401FFE43EFE5C
:10467B00E43DFDE43CFC12706D7E00C006C007906B
:10468B000AD0E0540FF075F008A424C1F582E4348D
:10469B0050F5831249F312706DEFFCD0E02400FF4C
:1046AB00D0E03CFE900ACCF0A3EFF0BEFF0ABFFFB8
:1046BB0007E4900ACCF0A3F0900ACCE0FEA3E0FF55
:1046CB007C007D0A124916E4FD900AD0E0540FF0ED
:1046DB0075F008A424C1F582E43450F583124A0323
:1046EB00EB2FFFEA3EFEED39FDEC38FCEF241EFF0D
:1046FB00E43EFEE43DFDE43CFCC004C005C006C046
:10470B00077B017A0A79EF900B0F124A1F0000000A
:10471B000AD007D006D005D004125DDA900ACDE09E
:10472B0004F07006900ACCE004F0900ACCE0FCA3F5
:10473B00E0FDECA3F0EDA3F0A3E0540FF075F0084F
:10474B00A424C1F582E43450F5831249F37B017A3A
:10475B000A79CE900B06E4F0A37402F0126A097F7B
:07476B0001227F01227F0102
:014772002224
:0433D7007B017D03F6
:0E33DB00900AFFEBF0A3EAF0A3E9F0A3EDF0F7
:1033E900E4900B0FF078107C0B7D017BFF7A51790B
:1033F90080FE7F0612484378167C0B7D017BFF7A9D
:103409005179867E007F04124843900B1A124A1F95
:1034190000000000E4900B1EF0A3F0A3F0A3F0A3BA
:10342900F0A3F0900B02E064016003023645900BB3
:103439001EF0A3F0900B1EE0FEA3E0FFC39409EE7B
:1034490094005030900AFFE0FBA3E475F0011249A3
:103459003EA9F0FA124869FD74032FF582740B3EF8
:10346900F583EDF0900B1FE004F070C8900B1EE09F
:1034790004F080C0900B0BE0900B0FF0540FF07527
:10348900F008A424E9F582E4344FF5831249F3EFF7
:103499002401FFE43EFEE43DFDE43CFC12706D7E38
:1034A90000C006C007900B0FE0540FF075F008A498
:1034B90024E9F582E4344FF5831249F312706DEF74
:1034C900FCD0E02400FFD0E03CFE900B20F0A3EFFD
:1034D900F0BEFF0ABFFF07E4900B20F0A3F0900BAA
:1034E9000FE0540FF075F008A424E9F582E4344F95
:1034F900F5831249F302363C900B20E0FEA3E0FF6E
:103509007C007D14124916E4FD900B0FE0540FF076
:1035190075F008A424E9F582E4344FF583124A03CF
:10352900EB2FFFEA3EFEED39FDEC38FCEF243CFFC2
:10353900E43EFEE43DFDE43CFC900B1AE0F8A3E018
:10354900F9A3E0FAA3E0FBC31249CF4003023AE42E
:103559007B017A0579A4900B1AE0FCA3E0FDA3E0B6
:10356900FEA3E0FF900B2B7402F0A37458F0125FD6
:10357900C77599A2E59830E1FB5398FD900B0C743F
:1035890001F0A37405F0A374A4F0E4900B1EF0A35A
:10359900F0C3900B1FE09458900B1EE094025079F1
:1035A900900B277401F0A3740BF0A37403F0A3E448
:1035B900F074091267B1EF601A900B0DE475F014FD
:1035C900124928900B23E004F0703D900B22E0048F
:1035D900F080357E027F587D007B017A0579A4123F
:1035E9004A50900B22E0FEA3E0FF7C007D141249B3
:1035F90016E4FD900B0FE0540FF075F008A424E9D0
:10360900F582E4344F023A9E900B1FE02414F090A7
:103619000B1EE03400F002359A900B1AE0FCA3E08F
:10362900FDA3E0FEA3E02458FFEE3402FEE43DFDD5
:10363900E43CFC900B1A124A13023501900B02E08C
:103649006003023899900B1EF0A3F0900B1EE0FE68
:10365900A3E0FFC39406EE94005030900AFFE0FB0C
:10366900A3E475F00112493EA9F0FA124869FD7404
:10367900102FF582740B3EF583EDF0900B1FE004DB
:10368900F070C8900B1EE004F080C0E4900B1EF0AF
:10369900A3F0900B1EE0FEA3E0FFC39406EE940096
:1036A900502674102FF582740B3EF583E0F599E5E9
:1036B9009830E1FB5398FD00900B1FE004F070D2A5
:1036C900900B1EE004F080CA900B15E0900B0FF0F0
:1036D900540FF075F008A42441F582E43450F583C1
:1036E9001249F3EF2401FFE43EFEE43DFDE43CFC16
:1036F90012706D7E00C006C007900B0FE0540FF0EA
:1037090075F008A42441F582E43450F5831249F395
:1037190012706DEFFCD0E02400FFD0E03CFE900B6E
:1037290020F0A3EFF0BEFF0ABFFF07E4900B20F0E3
:10373900A3F0900B0FE0540FF075F008A42441F5A5
:1037490082E43450F5831249F3023890900B20E05B
:10375900FEA3E0FF7C007D0A124916E4FD900B0FE1
:10376900E0540FF075F008A42441F582E43450F5D3
:1037790083124A03EB2FFFEA3EFEED39FDEC38FCDC
:10378900EF241EFFE43EFEE43DFDE43CFC900B1AF1
:10379900E0F8A3E0F9A3E0FAA3E0FBC31249CF40A4
:1037A90003023AE47B017A0579A4900B1AE0FCA3A1
:1037B900E0FDA3E0FEA3E0FF900B2B7402F0A374DD
:1037C90058F0125FC77599A2E59830E1FB5398FD4F
:1037D900900B0C7401F0A37405F0A374A4F0E490A9
:1037E9000B1EF0A3F0C3900B1FE09458900B1EE042
:1037F90094025079900B277401F0A3740BF0A37411
:1038090010F0A3E4F074061267B1EF601A900B0D83
:10381900E475F00A124928900B23E004F0703D90FA
:103829000B22E004F080357E027F587D007B017A0F
:103839000579A4124A50900B22E0FEA3E0FF7C0018
:103849007D0A124916E4FD900B0FE0540FF075F054
:1038590008A42441F582E43450023A9E900B1FE0FB
:10386900240AF0900B1EE03400F00237EE900B1A98
:10387900E0FCA3E0FDA3E0FEA3E02458FFEE340240
:10388900FEE43DFDE43CFC900B1A124A1302375545
:10389900900B02E064036003023AE4900B1EF0A36C
:1038A900F0900B1EE0FEA3E0FFC39404EE940050D9
:1038B90030900AFFE0FBA3E475F00112493EA9F03C
:1038C900FA124869FD74162FF582740B3EF583EDE3
:1038D900F0900B1FE004F070C8900B1EE004F0801C
:1038E900C0900B17E0FF900B16E02FFF900B18E02C
:1038F9002FFFA3E02F900B0FF0540FF075F008A4E1
:1039090024C1F582E43450F5831249F3EF2401FF11
:10391900E43EFEE43DFDE43CFC12706D7E00C00611
:10392900C007900B0FE0540FF075F008A424C1F5FF
:1039390082E43450F5831249F312706DEFFCD0E044
:103949002400FFD0E03CFE900B20F0A3EFF0BEFF77
:103959000ABFFF07E4900B20F0A3F0900B0FE0548F
:103969000FF075F008A424C1F582E43450F58312F0
:1039790049F3023ADB900B20E0FEA3E0FF7C007DD7
:103989000A124916E4FD900B0FE0540FF075F00888
:10399900A424C1F582E43450F583124A03EB2FFFC6
:1039A900EA3EFEED39FDEC38FCEF241EFFE43EFE55
:1039B900E43DFDE43CFC900B1AE0F8A3E0F9A3E038
:1039C900FAA3E0FBC31249CF4003023AE47E027F27
:1039D900587D007B017A0579A4124A507B017A054A
:1039E90079A4900B1AE0FCA3E0FDA3E0FEA3E0FF9D
:1039F900900B2B7402F0A37458F0125FC77585A25F
:103A0900E58430E1FB5384FD900B0C7401F0A37441
:103A190005F0A374A4F0E4900B1EF0A3F0C3900B7F
:103A29001FE09458900B1EE094024003023AC190A3
:103A39000B277401F0A3740BF0A37416F0A3E4F040
:103A4900A374041267B2EF601A900B0DE475F00AC3
:103A5900124928900B23E004F0704C900B22E004EB
:103A6900F080447E027F587D007B017A0579A4129B
:103A79004A50900B22E0FEA3E0FF7C007D0A124928
:103A890016E4FD900B0FE0540FF075F008A424C163
:103A9900F582E43450F583124A03EB2FFFEA3EFE28
:103AA900ED39FDEC38FC22900B1FE0240AF0900B55
:103AB9001EE03400F0023A26900B1AE0FCA3E0FD68
:103AC900A3E0FEA3E02458FFEE3402FEE43DFDE44A
:103AD9003CFC900B1A124A1302397E7E027F587DF4
:0F3AE900007B017A0579A4124A50E4FFFEFDFC30
:013AF80022AB
:0D67B100A3F0900B0CE0FBA3E0FAA3E0F9CD
:0B67BE00900B24EBF0A3EAF0A3E9F03D
:1067C900E4FFFED3900B2BE09F900B2AE09E403212
:1067D900900B27E0FBA3E0FAA3E0F98F828E8312E6
:1067E9004882FD900B24E0FBA3E0FAA3E0F98F8235
:1067F9008E831248826D60037F01220FBF00010E54
:1068090080C1900B2AE0B50608A3E0B507037F0015
:03681900227F01DA
:01681C002259
:063AF9007B017A00791048
:0E3AFF00900AAEEBF0A3EAF0A3E9F0A3EDF01D
:103B0D00E4A3F0A3F078B47C0A7D017BFF7A5179B0
:103B1D008AFE7F02124843E4900AB6F078B77C0A19
:103B2D007D017BFF7A51798CFE7F0612484378BD6B
:103B3D007C0A7D017BFF7A5179927E007F041248C9
:103B4D0043900AC1124A1F0000000078C57C0A7D0F
:103B5D00017BFF7A5179967E007F0912484378CE1A
:103B6D007C0A7D017BFF7A51799F7E007F1412487C
:103B7D0043900AB1E064016003023D59900AE2F0FE
:103B8D00A3F0900AE2E0FEA3E0FFC39409EE9400D7
:103B9D005030900AAEE0FBA3E475F00112493EA946
:103BAD00F0FA124869FD74C52FF582740A3EF5834B
:103BBD00EDF0900AE3E004F070C8900AE2E004F042
:103BCD0080C0900ACDE0900AB6F0540FF075F00861
:103BDD00A424E9F582E4344FF5831249F3EF24016F
:103BED00FFE43EFEE43DFDE43CFC12706D7E00C042
:103BFD0006C007900AB6E0540FF075F008A424E94A
:103C0D00F582E4344FF5831249F312706DEFFCD059
:103C1D00E02400FED0E03C900AB2F0A3CEF07B0190
:103C2D007A0A79C57D011233DB900AC1124A13E479
:103C3D00FFFEFDFC900AC1E0F8A3E0F9A3E0FAA3B2
:103C4D00E0FBC31249CF70037F0122900AB2E0FE60
:103C5D00A3E0FF7C007D14124916E4FD900AB6E046
:103C6D00540FF075F008A424E9F582E4344FF58380
:103C7D00124A03EB2FFFEA3EFEED39FDEC38FCEF67
:103C8D00243CFFE43EFEE43DFDE43CFC7B017A0A6E
:103C9D0079CE900B2BE4F0A37414F0125FC7900A49
:103CAD00C1E0FCA3E0FDA3E0FEA3E0FF7B017A0AE7
:103CBD0079CE900B06E4F0A37414F0126A097E001D
:103CCD007F147DFF7B017A0A79CE124A50900AB299
:103CDD00E0FEA3E0FF7C007D14124916E4FD900A7E
:103CED00B6E0540FF075F008A424E9F582E4344FE2
:103CFD00F583124A03EB2FFFEA3EFEED39FDEC385A
:103D0D00FCEF243CFFE43EFEE43DFDE43CFC7B0186
:103D1D007A0A79CE900B06E4F0A37414F0126A09B6
:103D2D00900AB3E024FFF0900AB2E034FFF0E0FC1B
:103D3D00A3E0FDECA3F0EDA3F0A3E0540FF075F0BC
:103D4D0008A424E9F582E4344F02411A900AB1E047
:103D5D006003023F32900AE2F0A3F0900AE2E0FE27
:103D6D00A3E0FFC39406EE94005030900AAEE0FB42
:103D7D00A3E475F00112493EA9F0FA124869FD74E9
:103D8D00B72FF582740A3EF583EDF0900AE3E00457
:103D9D00F070C8900AE2E004F080C0900ABCE09098
:103DAD000AB6F0540FF075F008A42441F582E434FE
:103DBD0050F5831249F3EF2401FFE43EFEE43DFD8F
:103DCD00E43CFC12706D7E00C006C007900AB6E0A0
:103DDD00540FF075F008A42441F582E43450F583B6
:103DED001249F312706DEFFCD0E02400FED0E03CE0
:103DFD00900AB2F0A3CEF07B017A0A79B7E4FD12F6
:103E0D0033DB900AC1124A13E4FFFEFDFC900AC198
:103E1D00E0F8A3E0F9A3E0FAA3E0FBC31249CF70E9
:103E2D00037F0122900AB2E0FEA3E0FF7C007D0A31
:103E3D00124916E4FD900AB6E0540FF075F008A48F
:103E4D002441F582E43450F583124A03EB2FFFEA47
:103E5D003EFEED39FDEC38FCEF241EFFE43EFEE4A2
:103E6D003DFDE43CFC7B017A0A79CE900B2BE4F00E
:103E7D00A3740AF0125FC7900AC1E0FCA3E0FDA392
:103E8D00E0FEA3E0FF7B017A0A79CE900B06E4F009
:103E9D00A3740AF0126A097E007F0A7DFF7B017A06
:103EAD000A79CE124A50900AB2E0FEA3E0FF7C00E0
:103EBD007D0A124916E4FD900AB6E0540FF075F034
:103ECD0008A42441F582E43450F583124A03EB2F04
:103EDD00FFEA3EFEED39FDEC38FCEF241EFFE43E1B
:103EED00FEE43DFDE43CFC7B017A0A79CE900B06A5
:103EFD00E4F0A3740AF0126A09900AB3E024FFF00B
:103F0D00900AB2E034FFF0E0FCA3E0FDECA3F0ED8D
:103F1D00A3F0A3E0540FF075F008A42441F582E45A
:103F2D00345002411A900AB1E06403600302413437
:103F3D00900AE2F0A3F0900AE2E0FEA3E0FFC39442
:103F4D0004EE94005030900AAEE0FBA3E475F0014E
:103F5D0012493EA9F0FA124869FD74BD2FF582741D
:103F6D000A3EF583EDF0900AE3E004F070C8900A84
:103F7D00E2E004F080C0900ABEE0FF900ABDE02FA1
:103F8D00FF900ABFE02FFFA3E02F900AB6F0540F69
:103F9D00F075F008A424C1F582E43450F58312497C
:103FAD00F3EF2401FFE43EFEE43DFDE43CFC127022
:103FBD006D7E00C006C007900AB6E0540FF075F094
:103FCD0008A424C1F582E43450F5831249F312702C
:103FDD006DEFFCD0E02400FED0E03C900AB2F0A3DF
:103FED00CEF07B017A0A79BD7D031233DB900AC1D5
:103FFD00124A13E4FFFEFDFC900AC1E0F8A3E0F9BC
:10400D00A3E0FAA3E0FBC31249CF70037F01229016
:10401D000AB2E0FEA3E0FF7C007D0A124916E4FD22
:10402D00900AB6E0540FF075F008A424C1F582E4AF
:10403D003450F583124A03EB2FFFEA3EFEED39FDB6
:10404D00EC38FCEF241EFFE43EFEE43DFDE43CFCB9
:10405D007B017A0A79CE900B2BE4F0A3740AF0124F
:10406D005FC7900AC1E0FCA3E0FDA3E0FEA3E0FF63
:10407D007B017A0A79CE900B06E4F0A3740AF01254
:10408D006A097E007F0A7DFF7B017A0A79CE124A8A
:10409D0050900AB2E0FEA3E0FF7C007D0A124916A3
:1040AD00E4FD900AB6E0540FF075F008A424C1F5B4
:1040BD0082E43450F583124A03EB2FFFEA3EFEED06
:1040CD0039FDEC38FCEF241EFFE43EFEE43DFDE43B
:1040DD003CFC7B017A0A79CE900B06E4F0A3740ABE
:1040ED00F0126A09900AB3E024FFF0900AB2E034AE
:1040FD00FFF0E0FCA3E0FDECA3F0EDA3F0A3E05492
:10410D000FF075F008A424C1F582E43450F5831244
:10411D0049F37B017A0A79B4900B06E4F0A374029B
:09412D00F0126A097F01227F00F3
:014136002266
:104D3000E4900A97F0A3F0A3F0A3F0789B7C0A7D9F
:104D4000017BFF7A5179B3FE7F1212484378AD7C24
:104D50000A7D017BFF7A5179C57E007F09124843A5
:104D600090080EE06401704090025CE0703A900898
:104D70000EF07A4F79CB126CB07F647E00127051C6
:104D8000900263E0FF6404601FEFB4081B90025CB4
:104D90007401F0E4900000F0A3F07A4F79D5126C22
:104DA000B07F647E0012705190025CE0640170304C
:104DB000900263E0FFB4040BE490025CF090080EF4
:104DC000F0801DEFB40C1990025C7402F0E49000C6
:104DD00000F0A3F07BFF7A4F79DF7D0AFC126CB5FF
:104DE00090025CE064026003024F7F7FF47E011258
:104DF0007051900263E0FFB40403024F76EF640841
:104E00006003024F7F900A99F0A3F0900A97F0A3F5
:104E10007488F0900A97E0FEA3E0FFC394ACEE9490
:104E20000050047D0180027D00ED603C745D2FF533
:104E30008274023EF583E0FF900A99E0FCA3E0242F
:104E40009BF582740A3CF583EFF0900A9AE004F037
:104E50007006900A99E004F0900A98E02402F0901D
:104E60000A97E03400F080ABE4900A97F0A3F0904A
:104E70000A97E0FCA3E0FDC39408EC94005067EDB2
:104E800025E0FFEC33FE749B2FF582740A3EF58318
:104E9000E024D0C454F0FF74AD2DF582740A3CF5C3
:104EA00083EFF0900A97E0FEA3E0FF24ADF5827453
:104EB0000A3EF583C083C082E0FDEF25E0FFEE33BC
:104EC000FE749C2FF582740A3EF583E024D0FFED3A
:104ED0004FD082D083F0900A98E004F07091900A4D
:104EE00097E004F08089900AACE0FD900AABB458DA
:104EF00010E024D0FEC454F0900AB5F0440AF080CB
:104F000010E024D0C454F0FF900AB5F0ED24D04F47
:104F1000F0900ABA7401F0A3740AF0A374ADF0A380
:104F2000E4F0A37409F0C2087BFF7A4F799D125117
:104F3000F81261037B017A0A79AD7D011233DBE45B
:104F4000FBFAF9F8C31249CF6009D2067F01126C4F
:104F50001B8023900ABA7401F0A3740AF0A374AD05
:104F6000F0A3E4F0A37409F0D2087BFF7A4F79979D
:104F70001251F8126103E490025CF090080EF0E424
:064F8000900000F0A3F018
:014F86002208
:105BC000E4900A97F0C20778987C0A7D017BFF7AFF
:105BD0005179CEFE7F02124843789A7C0A7D017B80
:105BE000FF7A5179D07E007F0412484330C003020F
:105BF0005C7E7F267E0212702CEF60047F018002A3
:105C00007F00900A97E0C3940150047E0180027ED9
:105C100000EE5F6008C207900A97E004F0900A97D0
:105C2000E0C3940150147D267C027F01126741EF8E
:105C30007004D2078006C2078002C207E4900A9768
:105C4000F030073A900AB304F0A3740AF0A37498F2
:105C5000F07BE87A03E4FDFC7F01125A1EEF701E10
:105C6000D202D2067F011268EB7BFF7A4F79A51230
:0E5C700054207FC87E001270517F01126C1B01
:015C7E002203
:0B584400900C57EBF0A3EAF0A3E9F092
:10584F00A3124A1F00000000E4900C5EF0785F7C0A
:10585F000C7D017BFF7A5179D4FE7F02124843E41D
:10586F00900C5EF0900C5EE0FFC394104003025961
:10587F003DEF75F008A424C1F582E43450F583128E
:10588F0049F3EF241E025921900C5EE075F008A435
:10589F0024C5F582E43450F5831249F3900C5AE095
:1058AF00F8A3E0F9A3E0FAA3E0FBC31249CF5075C8
:1058BF007B017A0C795F900C5AE0FCA3E0FDA3E02A
:1058CF00FEA3E02406FFE43EFEE43DFDE43CFC9035
:1058DF000B2BE4F0A37402F0125FC7900C5FE0FF94
:1058EF00F46042A3E0FEF4603C900C57E0FBA3E0B1
:1058FF00FAA3E0F9124869B5072B9000011248820C
:10590F00B50622900C5AE0FCA3E0FDA3E0FEA3E055
:10591F00FF22FFE43EFEE43DFDE43CFC900C5A12F6
:10592F004A13025897900C5EE004F0025873E4FF9C
:03593F00FEFDFC6E
:015942002242
:104A7C00E4900A97F0789A7C0A7D017BFF7A517951
:104A8C00D6FE7F06124843E4900A98F0A3F0900AF1
:104A9C0098E0FEA3E0FFC39416EE94005060747A85
:104AAC002FF582740A3EF583E0F599E59830E1FB29
:104ABC005398FD900A98E0FEA3E0FF247AF58274E7
:104ACC000A3EF583E0D394604010747A2FF582741B
:104ADC000A3EF583E024A9F08014900A98E0FEA326
:104AEC00E0247AF582740A3EF583E024D0F0900A33
:104AFC0099E004F07098900A98E004F08090E490AB
:104B0C000A98F0A3F0900A98E0FEA3E0FFC3940B80
:104B1C00EE9400506AEF25E0FFEE33FE747A2FF529
:104B2C0082740A3EF583E0C454F0FD747B2FF58249
:104B3C00740A3EF583E02DFF900A98E0FCA3E0FD9B
:104B4C0024FCF58274073CF583EFF074FC2DF582A0
:104B5C0074073CF583C083C082E0FF74412DF5825D
:104B6C0074513CF583E493FEEF6ED082D083F090C9
:104B7C000A99E004F0708E900A98E004F08086E4C4
:104B8C00900A98F0A3F0900A98E0FEA3E0FFC3947B
:104B9C000BEE9400502274FC2FF58274073EF583C3
:104BAC00E0FF900A97E02FF0900A99E004F070D69D
:104BBC00900A98E004F080CE900A97E0540FF090A1
:104BCC000B027401F0A3740AF0A37497F0A3E4F041
:104BDC00A3740BF0A3E4F0A304F0FB7A0779FC12A6
:104BEC00624AE4900A98F0A3F0900A98E0FEA3E0E1
:104BFC00FFC3940BEE9400502574FC2FF5827407C0
:104C0C003EF583E0F599E59830E1FB5398FD900A69
:104C1C0099E004F070D3900A98E004F080CBE49013
:104C2C000A98F0A3F0900A98E0FCA3E0FDC3940569
:104C3C00EC94005067ED25E0FFEC33FE74FC2FF58F
:104C4C008274073EF583E024D0C454F0FF749A2D8F
:104C5C00F582740A3CF583EFF0900A98E0FEA3E02D
:104C6C00FF249AF582740A3EF583C083C082E0FD6E
:104C7C00EF25E0FFEE33FE74FD2FF58274073EF551
:104C8C0083E024D0FFED4FD082D083F0900A99E0DE
:104C9C0004F07091900A98E004F08089900A97E0F3
:104CAC00FF900A9FF0900806E024D0C454F0FEEF69
:104CBC004E900A9FF0900ABA7401F0A3740AF0A304
:104CCC00749AF0A3E4F0A37406F0C2087BFF7A4F49
:104CDC0079A31251F81261037B017A0A799AE4FDE7
:104CEC001233DBE4FBFAF9F8C31249CF6009D206A0
:104CFC007F01126C1B8023900ABA7401F0A3740A12
:104D0C00F0A3749AF0A3E4F0A37406F0D2087BFF2E
:104D1C007A4F79991251F8126103E490080CF0A3C0
:034D2C00F0C203CF
:014D2F002261
:1055B800E4900A97F07F0AFE127051900325E0FFED
:1055C800904FC5E4936F7032900326E0FF904FC66A
:1055D800E493B50725900ABA7401F0A3740AF0A3FE
:1055E8007497F0A3E4F0A304F0D2087BFF7A4F7914
:1055F800C51251F81261030256FE900325E0FF9090
:105608004FC3E4936F706C900326E0FF904FC4E49F
:10561800936F705F7B017A037927900B06F0A37470
:1056280006F07F007EE07D7F7C00126A097FF47EB1
:1056380001127051900ABA7401F0A37403F0A374B4
:1056480027F0A3E4F0A37406F0D2087BFF7A4F7921
:10565800C31251F81261037FD07E07127051900A6D
:10566800BA7401F0A3740AF074971251E812610336
:105678000256FB900325E0FF904FC7E4936F703B01
:10568800900326E0FF904FC8E4936F702E7B017A59
:10569800037927900B06F0A37402F07F0A7EE07D61
:1056A8007F7C00126A097F01126C1B7BFF7A4F799D
:1056B800C77D011265E212704D8038900325E0FF26
:1056C800904FC9E4936F702E900326E0FF904FCA65
:1056D800E493B507217F007EE07D7F7C001270E3B4
:1056E8007F01126C1B7BFF7A4F79C97D011265E23D
:1056F80012704D75C720E4900A93F0A3F0FE7F1E48
:0A570800FD7B017A037925024A5067
:106D9000900AFDEBF0A3EAF0A3E9F0A3ECF0A3ED79
:016DA000F002
:106DA100E4FFFED3900B01E09F900B00E09E402694
:106DB100900AFDE0FBA3E475F00112493EA9F0FA47
:106DC100124869F599E59830E1FB5398FD00000FF1
:066DD100BF00010E80CDA1
:016DD7002299
:056CB0007BFF7D0AFCE2
:106CB500900AB6EBF0A3EAF0A3E9F0A3ECF0A3ED9C
:016CC500F0DE
:106CC600E4FFFED3900ABAE09F900AB9E09E402600
:106CD600900AB6E0FBA3E475F00112493EA9F0FA6A
:106CE600124869F585E58430E1FB5384FD00000F09
:066CF600BF00010E80CD7D
:016CFC002275
:0D711400AFA05391FB439204D29200C292AF
:01712100224B
:0A610300AC06AD077B017A0579A414
:10610D00900AB7EBF0A3EAF0A3E9F0A3ECF0A3ED4E
:01611D00F091
:10611E00E4A3F0A3F0209369D294209362F59575D1
:10612E0096FF4391045392FB900ABAE0FEA3E0FF60
:10613E00C3900ABDE09F900ABCE09E503E7F647EF5
:10614E000012709B900AB7E0FBA3E0FAA3E0F9906F
:10615E000ABCE0FEA3E0F5828E83124882F5A07F92
:10616E000A7E0012709BB2B32092FD900ABDE0042D
:10617E00F070B5900ABCE004F080ADC2948002C20B
:09618E0094C2947595FFE4F596A6
:0161970022E5
:10622C00A3F0900AC3E0FFA3E0900B05CFF0A3EF1F
:0E623C00F0A3E4F07402A3F07B017A0579A4CC
:0B624A00900AFFEBF0A3EAF0A3E9F0DC
:10625500E4900B09F0A3F0900B07E0FEA3E0FFA389
:10626500E0FCA3E0FDC39FEC9E504C900B02E0FBCD
:10627500A3E0FAA3E0F98D828C83124882FF900A8D
:10628500FFE0FBA3E0FAA3E0F9900B05E0FCA3E037
:10629500FDE92DF9EA3CFA900B09E0FCA3E029F9A8
:1062A500EA3CFAEF1248E2900B0AE004F070A8907D
:0762B5000B09E004F080A0DA
:0162BC0022BF
:1051DE00900ABAF0A3740AF074A7A3F0A3E4F0A3A4
:0A51EE0004F0D2087BFF7A4F79919C
:0B51F800900AB7EBF0A3EAF0A3E9F087
:1052030078BF7C0A7D017BFF7A5179DC7E007F02C7
:10521300124843E4900AC1F0A3F0A3F0A3F0A3F073
:10522300A3F0300817900AC5F0A37402F0900B02A4
:1052330074FFF0A3744FF0A3748B801920081990A6
:105243000AC5E4F0A37402F0900B0274FFF0A37498
:105253004FF0A3748D12622D900AC5E0FEA3E0FF08
:10526300900AC4E02FF0900AC3E03EF0900ABDE03C
:10527300FCA3E0FDECA3F0EDA3F0900AC5E4F0A3DA
:105283007402F07B01900B0214F0A3740AF0A37470
:10529300BFF0900AC3E0FFA3E0900B05CFF0A3EFAC
:1052A300F0A3E4F0A37402F0126246900AC5E0FE94
:1052B300A3E0FF900AC4E02FF0900AC3E03EF09011
:1052C3000AC5E4F0A37406F0900B027401F0A37412
:1052D3000AF0A37474F0900AC3E0FFA3E0900B05F7
:1052E300CFF0A3EFF0A3E4F07406126242900AC574
:1052F300E0FEA3E0FF900AC4E02FF0900AC3E03E73
:10530300F090080FE0FF900AC3E0FCA3E024A4F5AB
:105313008274053CF583EFF0900AC4E004F0700654
:10532300900AC3E004F0900AC5E4F0A37402F0907D
:105333000AB7E0F9A3E0FAA3E0900B02C9F0A3EAED
:10534300F0E912622C900AC5E0FEA3E0FF900AC4C4
:10535300E02FF0900AC3E03EF0900ABDE0FEA3E028
:10536300FFD39400EE94004048900AC5EEF0A3EFFB
:10537300F0900ABAE0F9A3E0FAA3E0900B02C9F0B7
:10538300A3EAF0A3E9F0900AC3E0FDA3E0900B05C4
:10539300CDF0A3EDF0A3EEF0A3EF126243900AC5A4
:1053A300E0FEA3E0FF900AC4E02FF0900AC3E03EC2
:1053B300F0E4900ABFF0900AC1F0A3F0900AC3E0B2
:1053C300FEA3E0FF900AC1E0FCA3E0FDC39FEC9EB7
:1053D300502274A42DF58274053CF583E0FF900AF6
:1053E300BFE02FF0900AC2E004F070D0900AC1E051
:1053F30004F080C8900AC07416F0900B027401F098
:10540300A3740AF074BF12622C900AC4E02402F061
:0C541300900AC3E03400F0E0FEA3E0FFCC
:01541F00226A
:04704D007FE87E0357
:10705100E4FDFCC3ED9FEC9E5011000079167B808E
:0B706100DBFED9FC0DBD00010C80E837
:01706C002201
:10709B00E4FDFCC3ED9FEC9E500B7B03DBFE0DBDB3
:0570AB0000010C80EE65
:0170B00022BD
:07717C00C2CDC2B4D2CD2246
:071FE40012717CD2CD7F8E4B
:101FEB00E4FEEF1392B5D2B4C2B4EFC313FF0EEEFF
:031FFB00B408EF38
:011FFE0022C0
:10708400E4FFFEEFC313FF30B5034480FFD2B4C264
:06709400B40EEEB408ED9D
:01709A0022D3
:0D713C00121FE4E4FF121FEBC2B5C2CD220A
:0D714900121FE47F80121FEBC2B5C2CD22E1
:1070B10012717CD2CD121FEBAF05121FEBC2CDC2F4
:0270C100B522F6
:1070C300E4FE12717CD2CD121FEB127084C2CDC2CA
:0170D300B507
:0170D4002299
:0B715600EF1FAC0670011E4C70F6220B
:0B62BD00900C6FEBF0A3EAF0A3E9F0F7
:1062C800E4A3F0FC900C6FE0FBA3E0FAA3E0F98CE8
:1062D8008275830012488275F00A84FF900C72F070
:1062E800E92CF9E43AFA12486975F00A84E5F012E3
:1062F80048E2EFC454F0FF900C6FE0FBA3E0FAA370
:10630800E0F98C82758300EF1248AF0CECB407B447
:1063180012713C900C727480F0E4FC900C72E0FFF7
:10632800900C6FE0FBA3E0FAA3E0F98C8275830080
:10633800124882FD1270B1900C72E02402F00CEC4D
:06634800B407D802714900
:0B6FB600900C73EBF0A3EAF0A3E9F0ED
:106FC1007D81E4FCAF051270C3900C73E0FBA3E07C
:106FD100FAA3E0F98C82758300EF1248F40D0D0CD1
:046FE100ECB407E025
:016FE5002289
:056B1900900C48EFF0B4
:106B1E0053C0DF7F037E00127051E4900C49F043A6
:106B2E00C020900C48E030E0107F587E0212709B1F
:106B3E0053C0DF7FC87E00800E7FC87E0012709B20
:106B4E0053C0DF7F587E0212709B900C48E0C31337
:106B5E00F0A3E004F0E0C3940840C443C0207F01DA
:016B6E002204
:0B716100E5C030E2037F00227F012226
:10100C000263D9E493A3F8E493A34003F68001F2BE
:10101C0008DFF48029E493A3F85407240CC8C333E5
:10102C00C4540F4420C8834004F456800146F6DFB4
:10103C00E4800B010204081020408090108CE47EA8
:10104C00019360BCA3FF543F30E509541FFEE493A9
:10105C00A360010ECF54C025E060A840B8E493A370
:10106C00FAE493A3F8E493A3C8C582C8CAC583CA9B
:10107C00F0A3C8C582C8CAC583CADFE9DEE780BE53
:011B7500006F
:10477300E709F608DFFA8046E709F208DFFA803E28
:1047830088828C83E709F0A3DFFA8032E309F60815
:10479300DFFA8078E309F208DFFA807088828C837D
:1047A300E309F0A3DFFA806489828A83E0A3F60831
:1047B300DFFA805889828A83E0A3F208DFFA804C0B
:1047C30080D280FA80C680D4806980F280338010E2
:1047D30080A680EA809A80A880DA80E280CA80334B
:1047E30089828A83ECFAE493A3C8C582C8CCC583C3
:1047F300CCF0A3C8C582C8CCC583CCDFE9DEE78093
:104803000D89828A83E493A3F608DFF9ECFAA9F011
:10481300EDFB2289828A83ECFAE0A3C8C582C8CC67
:10482300C583CCF0A3C8C582C8CCC583CCDFEADE80
:10483300E880DB89828A83E493A3F208DFF980CCE2
:1048430088F0EF60010E4E60C388F0ED2402B404DB
:104853000050B9F582EB2402B4040050AF23234582
:0648630082239047C3739D
:10486900BB010689828A83E0225002E722BBFE024D
:09487900E32289828A83E4932280
:10488200BB010CE58229F582E5833AF583E02250EB
:1048920006E92582F8E622BBFE06E92582F8E22235
:0D48A200E58229F582E5833AF583E493224F
:1048AF00BB010FF8E58229F582E5833AF583E0280D
:1048BF00F0225009C58229F8E58226F622BBFE09AF
:1048CF00C58229F8E22582F222F8EA2583F583E9E9
:0348DF00932822F9
:1048E200BB010689828A83F0225002F722BBFE01B5
:0248F200F322AF
:1048F400F8BB010DE58229F582E5833AF583E8F0FA
:10490400225006E92582C8F622BBFE05E92582C8A5
:02491400F2228D
