:0300000002029861
:03000300022003D5
:03000B0002200BC5
:03001300022013B5
:03001B0002201BA5
:0300230002202395
:03002B0002202B85
:0300330002203375
:03003B0002203B65
:0300430002204355
:03004B0002204B45
:0300530002205335
:03005B0002205B25
:0300630002206315
:03006B0002206B05
:03007300022073F5
:03007B0002207BE5
:03008300022083D5
:03008B0002208BC5
:03009300022093B5
:03009B0002209BA5
:0300A3000220A395
:0300AB000220AB85
:0300B3000220B375
:0300BB000220BB65
:0C029800787FE4F6D8FD75811302027E29
:0D027E00C2AF1202551200BE12100080FE29
:10025500E5A2543FF5A275985075D7D075D6FF75B0
:060265008E14438E0122FD
:1000BE00E4F50CF50DF50EFF7E7EFDFC1201AA8F08
:1000CE000C7F011201A48F0D7F021201A48F0EE589
:1000DE000C645A60030201A1E50D64A560030201E0
:1000EE00A1750810F509C3E50894725017AE08AF54
:1000FE0009E4FCFD12020CE42509F5097402350829
:10010E00F50880E2E4F50AF50BC3E50B950EE50A5A
:10011E0094005071E4F508F509E50B25E0FEE425A1
:10012E0009CDE5083480CD2400FFED3EFEE4FCFD54
:10013E001201AA8F0CE50B25E0FEE42509CDE5089A
:10014E003410CD2400FFED3EFEE4FCFD850C1312B1
:10015E0001DC0509E50970020508C3E508940240B3
:10016E00B87F327E00120239E50B25E0FEE4240052
:10017E00FFEE3480FEE4FCFD12020C050BE50B7065
:10018E0088050A80847F007E7E7D007C0012020C32
:06019E0075C720021000ED
:1001DC008F128E118D108C0F75C78175C502E4FFBF
:1001EC00E511FEE4FDFC780812026B8FC3E512FFEB
:1001FC00E48FC48513C275C65A75C6A50002028B5E
:0601A4007E7E7D007C0060
:1001AA008F128E118D108C0FE4F5C275C78175C53B
:1001BA0001FFE511FEE4FDFC780812026B8FC3E52E
:1001CA0012FFE48FC475C65A75C6A50012028BAF1A
:0201DA00C2223F
:10020C008F128E118D108C0F75C78175C503E4FF8D
:10021C00E511FEE4FDFC780812026B8FC3E512FFBA
:0D022C00E48FC475C65A75C6A50002028B8A
:0D028B00E4F5C7F5C5F5C675C380F5C422BE
:10023900E4FDFCC3ED9FEC9E5011000079167B8014
:0B024900DBFED9FC0DBD00010C80E8BD
:010254002287
:10026B00E8600FECC313FCED13FDEE13FEEF13FF71
:03027B00D8F12295
:00000001FF
